:100000000040002011000000FD040000FD0400007D
:1000100010B501F039F900F035FC00F08FFA00005E
:1000200070B572B699221C4B1C4D1A601C4B953A48
:100030001A601C4B7C321A601B4B763A1A601B4AC2
:100040001B4B18201A6002221A4B00241A6012233C
:100050002B6001F071F8F022174B12011A60174A59
:10006000174B18491A604022174B0D201C60174B84
:100070001A6000F095FF0D2000F0BEFF144B200029
:100080001C6001F009F9112303222B60114B1A6047
:10009000114B1D321A6070BD000302403000104049
:1000A0000000044008000440000304403104000044
:1000B00008030440180304400003014040FF00808F
:1000C0000000014025130000280003400401014006
:1000D0000C02224030003040000E3F400000000083
:1000E0000000000000000000000000000000000010
:1000F0000000000000000000000000000000000000
:1001000010B5064C2378002B07D1054B002B02D0ED
:10011000044800E000BF0123237010BD4801002007
:1001200000000000FC1F0000084B10B5002B03D09E
:100130000749084800E000BF07480368002B00D1CA
:1001400010BD064B002BFBD09847F9E700000000DC
:100150004C010020FC1F0000B8000020000000003F
:1001600010B5054C200001F04FF820686368010BC2
:10017000000589B2184310BDAC010020F8B5FFF7A7
:10018000EFFF00250C0422002B00801859412B00A2
:10019000220C801A99410B04040C1C43584B594DF6
:1001A000E118594B0A091A40584B09011940584B9C
:1001B0000A43D21893082B40564D92002A4013430D
:1001C000554AAC46554E9B18554D5A085B00324077
:1001D0002B401343534A54499B18544A1F0A1B028D
:1001E0000F4013403B4307013A00F027504D3F03B7
:1001F0002B60504B174023401F434F4B4B4AFF1877
:100200003B0A3F0217400B404C4A3B439B183D4A78
:100210009F08DB43174062469B0013401F43484B37
:10022000394AFF18FB431B091340384A3F01174066
:10023000444A3B439B183A4A5F085B0037401340EF
:100240003B436B60F02307041B053B403E4F374A9E
:1002500027403B43F02707401F433C4B0002FF1859
:10026000FB433F021B0A17400B40394A3B439B1894
:100270001F09DB43244A1B011740244A13401F4334
:10028000344B204AFF18FF43BB0813406246BF00AF
:100290001740314A3B439B18214A5F085B003740B7
:1002A00013403B43AB602D4B1C40F0231B01184017
:1002B0000443E0436400400814400640284B2643B2
:1002C000F6183309F643104A360113400F4A164018
:1002D0001E43244B154AF618F34336021B0A1940F5
:1002E0003240214B0A43D218D243064993080B40AF
:1002F000614692000A401A431C4BD218EA60F8BDCE
:1003000059C9947F333333330F0F0F0FF0F0F0F0F0
:100310004E384E0ACCCCCCCCDC84235755555555A1
:10032000AAAAAAAA247BDCA8FF00FF0000FF00FF06
:10033000B4010020FFFFF0FF41BD4B3946F6AC3F52
:10034000DAE94D414299797E0FFFFFF02DB1F6B207
:10035000B2C3ED1B731F94F5DBAEE973FFF0FFFF33
:1003600038E47C2339DEC7D99A0FEC4100C1C62896
:100370000023F0B585B06946114A9A1812785A548C
:100380000133102BF7D1009B1FBA019B1EBA029BB1
:100390001DBA039B1CBAFFF7F1FE0A4B00201A6836
:1003A00097420AD15A68964207D19A68954204D179
:1003B000D868001B4342434158B2C0B205B0F0BDFB
:1003C000F0F7FF0FB401002010B590B040220B49A8
:1003D000684601F0D7F9002318006C4608495A42D4
:1003E00059180978A25C914201D00130C0B2013B9A
:1003F0001A004032F1D110B010BDC04600200000FC
:10040000FF27000010B50A2000F022FE094800F086
:1004100065F80A2000F01CFE8022074B52001A608B
:10042000064A074B1A604022064B1A6000F076FC21
:1004300010BDC046402000000003014041FF008085
:1004400000000140B000002010B500F0D1F800F02D
:10045000D1FF002811D1063000F0B4FF012000F0D8
:10046000BDFF00F0C7FF002803D100F0ABFFFFF78E
:10047000C9FF002000F0A6FF14E000F0DBFF002819
:1004800010D1063000F0BEFF012000F0C7FF00F0E1
:10049000D1FF002803D100F0B5FFFFF7B3FF002024
:1004A00000F0B0FFFFF764FF002805D0642000F0E3
:1004B000CFFD00F033FC08E0FFF786FF002801D1F4
:1004C00000F02CFC044800F009F8642000F0C0FDA6
:1004D00000F09CF8FEE7C046532000000FB400B5C2
:1004E000B5B036AA02CA02A8019201F075F902A8B5
:1004F00000F036F935B008BC04B0184710B501F06B
:1005000015F903680C2B00D1FEE7FEE7030010B5D8
:1005100080240849084A08686401C3189A1AA2424C
:1005200001DC0B6005E001F001F90C230360012000
:10053000404210BDBC00002018020020F8B5002584
:100540000F49104B01394A1C14D000221F685C6807
:100550009E68A018B24203D0B858A0500432F8E701
:100560000200DE68141AA64201D020C2FAE7103356
:100570000139E8E701F0E0F8FFF766FFFEE7C04663
:10058000010000001C210000002370B50B480C4C3A
:100590000C4D9A002100032B00D8A958013381503B
:1005A0002C2BF6D1FFF73CFD074B1A68002A00D12F
:1005B0001A608022054B92051A6070BD0000002071
:1005C000FD04000000000000B000002008ED00E085
:1005D0008021064A10B5136809060B4313600820F2
:1005E00000F00AFD00F096F810BDC046000025405E
:1005F00010B5054C2378002B03D100F01DF8012322
:100600002370FFF7E5FF10BD6401002010B508203E
:1006100000F0FCFC00F090F8054A082013685B002D
:100620005B0813600022034B1A6000F0F9FC10BD58
:1006300000002540880F254070B5002407210425BF
:100640001C4A1D4B08201A601C4B1D4A1C601D4B88
:100650001A601D4B1D4A13601D4A11601D4A063960
:1006600014601D4A11601D4A13601D4B1C601D4B18
:100670001D6000F0CBFC0321082000F09DFC1A490E
:10068000082000F08DFC194B1C60194B1C60194BA5
:100690001C60194B1C60194B1D60194B1C601A68BB
:1006A000184B1A80184B1C60184B1C60184B1C70A0
:1006B00070BDC0460C0000020000254040002540EF
:1006C00001000A0048002540070000800003254083
:1006D0000403254010032540440025400002254026
:1006E0000402254050002540E9140000880E2540F2
:1006F000C80E2540480F2540080F2540C80F25404B
:10070000880F25406C010020C8010020C401002092
:10071000CC010020F021054A13688B4360390B435C
:100720001360034B1A88034B1A60704700030240A2
:100730006C010020880F2540F021064A13688B4386
:100740001360054B1A68E423DB001340034A13804F
:100750007047C04600030240880F25406C0100200E
:1007600010B504000134631E1878002802D000F090
:10077000A1FEF7E710BD004770B506000D0014009C
:10078000002802D0002000F055FC00207519002C34
:1007900005D0013C2B191B78C018C0B2F7E770BD1B
:1007A000FF23020070B59A43C0B01300541C6A4680
:1007B000FF34D51A1E78EE540133A342FAD1C3B2E6
:1007C000D45C8C4205D0000AD15480B2110000F0F4
:1007D0003BFB40B070BD0000013810B50B2830D88D
:1007E0000902494200F002FF06080A0C0E1014121A
:1007F00016191B20174B13E0174B16E0174B0AE096
:10080000174B12E0174B0BE0174B09E0174B02E0B8
:10081000174B00E0174BC91817E0174B05E0174BB3
:10082000C9180878C0B214E0154BC9180A7848787E
:100830008C780002230418430300C8781343000691
:1008400006E0002000F0F6FB00210B78487800025B
:10085000184310BDC0FF0100C1FF0100C5FF01002A
:10086000C9FF0100D0FF0100D1FF0100D6FF010048
:10087000D2FF0100D4FF0100D8FF0100DCFF01001E
:10088000E0FF01000C4B10B51A68102313400B4A0F
:1008900000D113601368802B0DD1002402202100A9
:1008A0001460FFF799FFA04205D021000220FFF756
:1008B00093FFFFF760FF10BD54000340B00000201D
:1008C000F8B5010004000320FFF786FF21000600B1
:1008D0000420FFF781FF210007000620FFF77CFFBF
:1008E0000025012828D021000320FFF775FF0136DD
:1008F0003602F7192E0001300002B84209D20378FF
:100900005A1ED2B2FD2A00D80126ED18EDB20130F0
:10091000F3E721000120FFF75FFF6D42EBB20625F0
:10092000834209D1002E07D0044B24026042C01834
:100930000121FFF735FF00252800F8BDD1FF010098
:10094000F0B5C24CA54400F009FE62B6002700973E
:100950000197962103AC46ADFF23220049002800F1
:1009600000F004FE0028F4D12188062900D8AFE168
:100970002A780423012A5CD16E88F21D8A4200D9AC
:1009800086E0962149008A4200D981E0AA1992792D
:10099000172A4ED1F3189BB2002B08D0DCAAAC4921
:1009A000D21852181278013B801880B2F3E7AB19C5
:1009B0005A7940421B79120280B21A4308238242BC
:1009C00037D167E0342B00D0D6E0009B012B00D05C
:1009D0007EE1032E00D07BE180220021520091A80D
:1009E000802700F0D8FE7F00182191ABD819FF3185
:1009F00002ABF21EC91800F0C5FE0423F619FF333E
:100A0000B6B29E4200D01BE116228B21FF3202AB10
:100A10009B18490002AA521810781B78000218434C
:100A20008C4B0700984200D824E1FF3BFF3B00932A
:100A30000933002546A8012143702B0AC370002307
:100A400002AA06320170291D1580857089B200291D
:100A500009D0DCAC7E4E6418A419247801391B1926
:100A60009BB289B2F3E7DCA97B4C49195B420C19B4
:100A70009BB22370794C1B0A0C192370784B0735F5
:100A8000C91817230B70A9B27F3300F0A0FD60E7EF
:100A90000323CEE76B782C79180031380A282ED939
:100AA000704A1568002D26D0009A012A25D106AC7F
:100AB00002AA13725681002147AE0C22200005962F
:100AC00000F069FEA660210004A8A8472623A58897
:100AD000FF339D4202D9A368B34207D0A268002A1F
:100AE00001D1002D04D12368DBB2A3E70E23A0E7D8
:100AF0000E2315009EE705239CE7052399E700F0E8
:100B00007FFD0B001B00CFFF61FF4300CFFF4900BB
:100B10005D0061FF7B009200009B012B00D0D7E0BD
:100B2000002E00D0D4E03000FFF7CAFE434243411C
:100B30002B713300009D7DE7009B012B00D0C7E0A7
:100B4000012E00D0C4E0002C00D0C1E0464B1B6851
:100B50001B685A0CD2B2002A02D1DB03DB0D01E084
:100B600080239B002B711B0A6B71FF23AB71FE3B33
:100B7000EB71002304255DE7009B012B00D0A7E06B
:100B8000022E00D8A4E02FE7009B012B00D09FE0AD
:100B90000027DEE6009B012B00D099E02C33F519ED
:100BA000FF339D4200DD73E791ABD819320047A9AE
:100BB00000F0E8FD0023AFB21D003BE7062E00D099
:100BC00086E02A4A06AB94461000190014C814C1E6
:100BD0006246013EF6B29019A919007A0979884255
:100BE00076D1002EF5D147AA03CB03C201233700EB
:100BF0000093082533001DE7009B012B68D1032ECD
:100C000066D116228B21FF3202AB9B18490002AA43
:100C1000521816781B7836021E430E4B9E4259D945
:100C2000F63BFF3B05E70020FFF74AFE002802D114
:100C300080220F4B1A6000F095FC00F0FDF947E0B0
:100C400001230027009302333D00F3E68CFCFFFFF5
:100C5000A7FDFFFFFF010000ACFDFFFFADFDFFFFA3
:100C6000AEFDFFFF70010020C00000209C200000AE
:100C7000B0000020274B1B681A68130AD2B29BB23F
:100C8000002A01D001339BB26402381984B29C421D
:100C900014D3019B002B0BD180221900520006A80F
:100CA00000F079FD06A91C4800F0CEF8012301935D
:100CB00091A9200000F0C8F8002804D001230027E3
:100CC00000930933C0E70123070000930300BBE74B
:100CD0000423AEE680226102891909025200002035
:100CE000FFF74AFD0500002C0ED10B4B9E420BD1A5
:100CF00021000520FFF770FD21002D1A0620FFF7C7
:100D00006BFDEDB22D1AEDB26D4246AB1D710023A5
:100D100001258FE6C0000020FF01000070B5002013
:100D2000FFF7CEFD431E98410624134D40422B6829
:100D300004401A68C021C03A0020FFF71DFD6B680F
:100D40001B78181AC0B2834203D12B681B68002B92
:100D500002D1002000F06EF9084B19681A004029F2
:100D600001D0002C03D000231360FFF7E9FD80229F
:100D70001A6000F061F970BDC0000020B0000020D2
:100D800082B06A460B4B0C4900930C4B01930C4B01
:100D90001A600C4A1160C0461A68120F0F2A04D05C
:100DA0001A680020120F0A2A01D01868C0B202B0D7
:100DB0007047C046B6E900001600008074010020AC
:100DC0000800104004001040094B0A4A0A491A6002
:100DD0000A4A1160C0461A68120F0F2A04D01A6816
:100DE0000020120F0A2A01D01868C0B27047C0460E
:100DF00008001040B6E80000150000800400104014
:100E000082B06A460B4B0C4900930C4B01930C4B80
:100E10001A600C4A1160C0461A68120F0F2A04D0DB
:100E20001A680020120F0A2A01D01868C0B202B056
:100E30007047C046B6EA0000170000807401002029
:100E40000800104004001040F0B50024304BC7B03B
:100E5000029406000394984255D8A14253D08022B0
:100E600006A8520000F08EFC2A4B2B4D0493FF2362
:100E70002A492B4A04AF7B602F600A60C0462A686B
:100E80000191120F0F2A03D02A68120F0A2A01D0EB
:100E90002C681C400294029B002B36D100F0DDFA36
:100EA0000400FFF76DFF0390039B002B02D1FFF7B7
:100EB0008BFF0290029B002B16D11A4A1A4904920A
:100EC000049A0198360416430496134A2F60016071
:100ED000C0462968090F0F2903D01168090F0A2994
:100EE00001D01368DBB20293039B002B07D1FFF7FD
:100EF00087FF0390039B002B01D0039B02932000EC
:100F000000F0AFFA01E004230293029847B0F0BD6D
:100F1000FF010000B6D70000080010400400104098
:100F200004000080B6D800000500008070B5050000
:100F300000F093FA0400102D04D803210E4A136820
:100F40008B4307E0202D07D803210B4A13688B43FE
:100F500002390B4313600AE0302D05D80321064AFD
:100F600013688B430139F4E7002000F063F8200098
:100F700000F077FA70BDC04630001040024A034BC3
:100F800011680B401360704700002240FFFFFFBF55
:100F9000024B18684000C00F7047C0460000224056
:100FA0001B2800D901BE034B8000C31818681960C4
:100FB0007047C04640000020F8B504000E00032929
:100FC00000D901BE1B2C00D901BE032725003D40DE
:100FD000BD400635AF40AE4000F03FFAA408054BD7
:100FE000A400E4182368BB431E43266000F039FACE
:100FF000F8BDC04600E400E01F2318401E3B8340BC
:10100000014A13607047C04600E100E01F2318400A
:101010001E3B8340014A13607047C04680E100E0F8
:101020001F2318401E3B8340014A13607047C0468F
:1010300080E200E001BE7047034A044913689BB296
:101040000B4313607047C0460CED00E00400FA0546
:1010500070B5802504002D02064BAC4205D95868B6
:1010600000F0F2F9044BE418F6E79868604300F0EA
:10107000EBF970BDC80000200080FFFF37B500F01D
:10108000FDF8002842D000F0E8F91C21204B214A4D
:101090001B6812689B008A400B40920F1833D340A4
:1010A00080251D491D4A04000868ED0110401C4AB6
:1010B0005A435219D20B013A0243192B01D8194B4A
:1010C0000EE0194D19481818EB18A0251A3B0078A6
:1010D0001B786D031B182A43FF2B00D9FF239B05A8
:1010E0001A43134D0A602B6830200193FFF71EFF4F
:1010F0008021104AC905136814200B431360FFF7C1
:10110000A7FF019B20002B6000F0ABF937BDC04664
:10111000080F0340280003400800224000F800C0E8
:1011200040420F000000D43FAA2000004DF3FF0F03
:101130003000104000002240F7B50500183D0400C3
:10114000182D46D80126244B3700EB409F4340D151
:1011500000F083F90190FFF71BFF0097002802D0F1
:10116000FFF70CFF009607271C4E1D4A33681D49E8
:10117000BB4333601C4BE3181B78DBB213601B4A84
:101180001368BB4313601A4B0A68E31818787F236F
:101190009A43034013430B60322000F055F9182C9A
:1011A0000ED033681C3CA408BB433C401C43346055
:1011B000322000F049F93368AD08BB431D43356068
:1011C000009B012B01D1FFF759FF019800F049F96D
:1011D00000E001BEF7BDC04611111101080F034028
:1011E0000C0F0340180F03404DF3FF0F100F034087
:1011F00034F3FF0F10B5034B1B7B584300F024F969
:1012000010BDC046C8000020144B1A78144BD1B250
:1012100001601B781B020B431A000360114B1B7803
:101220001B041343104A0360127812061343036031
:101230000E4B1A780E4BD1B241601B781B020B4348
:101240001A0043600B4B1B781B0413430A4A43608C
:1012500012781206134343607047C04678F2FF0FBE
:1012600079F2FF0F7AF2FF0F7BF2FF0F7CF2FF0F94
:101270007DF2FF0F7EF2FF0F7FF2FF0F014B186828
:10128000C00F704700002240014A024B1A607047AD
:101290006588EDAC3800034070B5154D04002B682F
:1012A000144E9B0F9B07984215D0032233687C2075
:1012B000934333602B689B0F00D09030FFF79AFF69
:1012C00000F0CBF82B68A40F9B009B08A4071C43DD
:1012D0002C6000F0C6F803223368934319002B6892
:1012E0009A0F5342534101330B43336070BDC046E4
:1012F0000C0222401402224010B5040000F0ADF8A8
:101300000549064A0B681440054A134023430B6005
:101310000B6800F0A6F810BD10022240040404007F
:10132000FBFBFBFF042270B5224C2368134213D051
:1013300021490B6813420CD0204B5D6908681540A9
:10134000A84308605969914359619B68002B00D0FC
:1013500098470420FFF7D0FF80232268DB001A4261
:1013600015D015490A681A420DD0144A5569086803
:101370002B40984308605169114B0B405361D3686F
:10138000002B00D098478020C000FFF7B5FF8023D6
:101390002268DB021A420CD0074A12681A4204D0B3
:1013A000064B1B69002B00D098478020C002FFF736
:1013B000A3FF70BD10022240DC0000208C01002041
:1013C000FFFBFFFF034A044B116840020B40184328
:1013D0001060704708030440FFF1FFFF0823044931
:1013E000C0000A689A43D2B2034013430B607047AF
:1013F00000030440024B18680007C00F7047C04646
:1014000004030440034A044B116880010B40184355
:1014100010607047080004403FFEFFFF04230449AA
:1014200080000A689A43D2B2034013430B607047AE
:1014300000000440024B18684007C00F7047C046C8
:1014400004000440000000000230800803D0013096
:101450000238FCD1C046C0467047EFF3108072B628
:10146000704780F310887047084B094A1968136861
:101470000020994208D013680133412B00D10300AA
:101480000449C85C1360C0B27047C046C801002060
:10149000C4010020CD010020044B1868044B1A68D9
:1014A0001B68904200D24130C01A7047C80100202A
:1014B000C40100201F2204490B681340082BFBD0F5
:1014C000024B18607047C046080225404002254084
:1014D00070B504004518AC4204D02078FFF7EAFF4D
:1014E0000134F8E770BD0000134B70B51B68002B8A
:1014F00000D09847114B1B685B071CD520241F2088
:101500000F490B680133412B00D100230D4A1568A8
:101510000D4AAB4203D113680C4B1C7004E01268F7
:101520000B4DD2B2EA540B600A4B1B680342E8D160
:101530000422094B1A6070BD68010020CC0F2540C1
:10154000C8010020C401002040032540CC01002038
:10155000CD01002008032540C00F254010B5FFF73E
:1015600047F810BD10B5FFF751F810BDF8B50400ED
:101570000F0016000120002C28D0002926D00A25B3
:101580005D43FFF789FF002810D0FFF785FF0500B6
:10159000AE20FFF72FFEFFF77FFF8542F5D1390020
:1015A000AF4200D929003180651807E00120013DD4
:1015B000FFF74EFD002DE4D1102007E0AC4204D02F
:1015C000FFF752FF20700134F8E70020F8BD70B536
:1015D00001230C001500002805D0002903D0FFF7D7
:1015E00077FF00232C80180070BD000002B4714604
:1015F00049084900095C49008E4402BC7047C04656
:1016000003B47146490840004900095E49008E4410
:1016100003BC7047002243088B4274D303098B42FA
:101620005FD3030A8B4244D3030B8B4228D3030CB2
:101630008B420DD3FF22090212BA030C8B4202D354
:101640001212090265D0030B8B4219D300E0090A7C
:10165000C30B8B4201D3CB03C01A5241830B8B4285
:1016600001D38B03C01A5241430B8B4201D34B036E
:10167000C01A5241030B8B4201D30B03C01A5241D3
:10168000C30A8B4201D3CB02C01A5241830A8B4258
:1016900001D38B02C01A5241430A8B4201D34B0241
:1016A000C01A5241030A8B4201D30B02C01A5241A5
:1016B000CDD2C3098B4201D3CB01C01A5241830959
:1016C0008B4201D38B01C01A524143098B4201D393
:1016D0004B01C01A524103098B4201D30B01C01ABE
:1016E0005241C3088B4201D3CB00C01A5241830838
:1016F0008B4201D38B00C01A524143088B4201D365
:101700004B00C01A5241411A00D2014652411046C4
:101710007047FFE701B5002000F006F802BDC046A3
:101720000029F7D076E770477047C046014B18682C
:101730007047C046400100200E4B70B500251E00CA
:101740000D4CE41AA410A54204D0AB00F3589847FE
:101750000135F8E700F0D0FC084B00251E00084CCE
:10176000E41AA410A54204D0AB00F3589847013501
:10177000F8E770BD042100000421000004210000EE
:101780000C210000002310B59A4203D0CC5CC45455
:101790000133F9E710BD03008218934202D019709B
:1017A0000133FAE77047000030B59BB00091049117
:1017B00008496D4602910591012182244942E9813F
:1017C000A4006946AC8100F075F80023009A1370FC
:1017D0001BB030BDFFFFFF7F10B513000A000100F2
:1017E00002480068FFF7E0FF10BDC046400100203E
:1017F000F0B58E6885B007000C00039201939E42FD
:1018000043D890238A89DB001A423ED00325096918
:10181000236801985B1A029363695D43EB0F5D19BE
:10182000029B6D1001331B18AB4200D91D005305FC
:1018300010D52900380000F037FB061E14D0029A9C
:101840002169FFF79FFFA289194B134080221343A0
:10185000A38112E02A00380000F086FB061E0CD19E
:101860002169380000F0D4FA0C23402201203B60AB
:10187000A38940421343A38117E0029B2661F61817
:1018800026606561019EED1AA560019BB34200D2FE
:101890001E0032000399206800F0A5FA0020A3681A
:1018A0009B1BA36023689E19266005B0F0BDC0464F
:1018B0007FFBFFFFF0B59FB0029005938B890F006F
:1018C00016001B0610D50B69002B0DD1402100F02E
:1018D000EBFA38603861002804D10C23029A0138F1
:1018E0001360D8E040237B61002306AD6B61203399
:1018F0006B761033AB7634002378002B03D1A31B17
:10190000049312D003E0252BF9D00134F4E7A31B94
:10191000320039000298FFF76BFF431C00D1B4E09E
:101920006A69049B944663446B612378002B00D161
:10193000ABE00122002352426A6002A954325218DD
:1019400001342B60EB60AB601370AB65534E2178B4
:101950000522300000F03CFA002807D00123801B4C
:1019600083402A68013413432B60EFE72B68DA06C3
:1019700004D55322202102A8121811701A0704D589
:1019800053222B2102A81218117022782A2A03D080
:10199000099B00200A210EE0059A111D126805918D
:1019A000002A01DB099204E05242EA60022213435A
:1019B0002B6001340BE02278303A092A04D84B43DB
:1019C00001349B180120F6E7002800D00993237802
:1019D0002E2B1ED163782A2B0AD1059B02341A1DA7
:1019E0001B680592002B01DA01235B42079310E08C
:1019F00000230A201A0001346B602178303909294C
:101A000004D84243013452180123F6E7002B00D0DA
:101A10000792234E21780322300000F0D9F90028E4
:101A200006D04023801B83402A68013413432B6077
:101A3000217806221B48661C297600F0C9F9002887
:101A400012D0194B002B06D10722059B0733934375
:101A50000833059314E005AB00933A00134B2900BB
:101A6000029800E000BF07E005AB00933A000F4B7F
:101A70002900029800F08AF80390039B013304D0F8
:101A80006B69039A9B186B6135E7BB890B985B0602
:101A900001D5012040421FB0F0BDC046C320000068
:101AA000C9200000CD20000000000000F117000058
:101AB000F7B5170001938A680B6900900C009342F8
:101AC00000DA130022003B6043321278002A01D072
:101AD00001333B6023689B0602D53B6802333B60C1
:101AE000062523681D401ED0230043331B785A1E51
:101AF0009341226892061CD53020E11843310870CA
:101B000021005A1C45310978A21843320233117062
:101B10000FE022000123193201990098089EB04776
:101B2000431C0ED00135E3683A689B1A9D42F0DBF6
:101B3000DAE72200019943320098089DA847431C28
:101B400002D10120404220E006232068E1683A6883
:101B500003400025042B03D18D1AEB43DB171D40F6
:101B6000A3682269934201DD9B1AED180027BD424C
:101B70000AD0220001231A3201990098089EB0472A
:101B8000431CDED00137F2E70020FEBDF0B58BB07C
:101B900006920A0043320793059004920A7E0C00D5
:101BA000109B6E2A00D1ABE011D8632A22D009D84D
:101BB000002A00D1B5E0582A00D0C5E045310A70AE
:101BC000814A4FE0642A1DD0692A1BD0BCE0732AE9
:101BD00000D1AAE009D86F2A29D0702A00D0B3E03A
:101BE000202209680A43226037E0752A1FD0782A2C
:101BF00033D0A9E00E001A684236111D196013682F
:101C00003370A4E021681A68080606D4490604D592
:101C1000111D19600023D55E02E0111D19601568C1
:101C2000002D3BDA2D23049A6D42137036E02168B3
:101C30001A68080606D4490604D51568111D1960EE
:101C4000ADB202E0111D196015685F4B227E03934F
:101C500008276F2A1DD00A271BE022007821453271
:101C600011705A4A19680392081D226818600D689D
:101C7000100602D4500600D5ADB2D30702D52023FA
:101C80001A4322601027002D03D1202322689A4393
:101C900022602300002243331A7002E00A274A4BD5
:101CA00003936368A360002B09DB0422216891433E
:101CB0002160002D05D1049E002B11D07BE0002D6A
:101CC00079D0049E28003900FFF72AFD039B013ECE
:101CD0005B5C280033703900FFF79CFC051EF1D1D6
:101CE000082F09D12368DB0706D563682269934270
:101CF00002DC3023013E3370049B9B1B23612BE0ED
:101D000009681A68080607D4490605D5111D196027
:101D10001368A28A1A8004E0111D196013686269B1
:101D20001A600023049E236116E01A68111D1960D1
:101D3000166800216268300000F04AF8002801D0DF
:101D4000801B6060636803E0260042363270012326
:101D500023610023049A1370079B09AA00932100B2
:101D6000069B0598FFF7A4FE431C02D101204042C8
:101D700027E02369320006990598079DA847431C70
:101D8000F4D0236800259B070FD4099BE068984294
:101D900017DA180015E02200012319320699059878
:101DA000079EB047431CE1D00135E368099A9B1AAE
:101DB0009D42F0DBE9E72600039B42361B78337037
:101DC0008EE70BB0F0BDC046D4200000E520000037
:101DD000C9B28218904204D003788B4202D00130FD
:101DE000F8E70020704710B5884202D98B18984256
:101DF00001D3002305E09B1A013A08D3995C815472
:101E0000FAE7934203D0CC5CC4540133F9E710BD28
:101E100070B50500002944D00C1F2368002B00DAA0
:101E2000E418280000F0D8F81E4A13681100002BAF
:101E300002D16360146031E0A3420DD92268A0187A
:101E4000834203D118685B688218226063600C606B
:101E500024E0A24203D813005A68002AF9D11E6870
:101E60009819A0420BD12168711858181960824244
:101E700014D110685268411819605A600EE0A042EF
:101E800002D90C232B6009E021686018824203D13B
:101E9000106852684118216062605C60280000F0A0
:101EA0009CF870BDA8010020032370B5CD1C9D4394
:101EB000083506000C2D01D20C2501E0002D01DBB8
:101EC000A94202D90C23336048E0300000F084F8C6
:101ED000234B1C681A002100002913D00B685B1BE0
:101EE0000DD40B2B02D90B60CC181EE08C4202D112
:101EF000636813601AE04B6863600C0016E00C0026
:101F00004968E9E7174C2368002B03D1300000F043
:101F100051F820602900300000F04CF8431C18D024
:101F20000323C41C9C43A0420DD12560300000F067
:101F300054F8200007220B30231D9043C31A0ED003
:101F40005A42E2500BE0211A300000F033F8431CF3
:101F5000EBD10C233000336000F03FF8002070BD5F
:101F6000A8010020A4010020F8B506000C0015000F
:101F7000002904D11100FFF797FF040018E0002AA0
:101F800003D1FFF745FF2C0012E000F027F885424F
:101F90000ED929003000FFF787FF071E07D0210068
:101FA0002A00FFF7EFFB21003000FFF731FF3C0074
:101FB0002000F8BD002370B5064C05000800236022
:101FC000FEF7A4FA431C03D12368002B00D02B603A
:101FD00070BDC04610020020704770470B1F1A6882
:101FE000101F002A04DA891804390B68D018043845
:101FF00070470000002200002A00000000000000DE
:10200000F7FF7018B2C0300154144A1378184B10FF
:102010003C57F905F00038200020D80E2B053B6115
:102020000023E023FDC2F7FF7018B2C03001541541
:102030004A1D78184B1AF917F0000020D80C2D090A
:10204000626F6F746C6F6164657220737461727417
:102050000D0A0054686520626F6172642069732004
:102060006E6F74206163746976617465642C20708E
:102070006C6561736520616374697661746520695C
:102080007420776974682074686520616374697668
:10209000652E63796163640D0A000000B5116A253D
:1020A000003C0101D91F5DC38D2AEEDBC9B9AA9B93
:1020B0008E82766B60564D443B332C241D17100ADC
:1020C000044300232D302B2000686C4C00656667AC
:1020D000454647003031323334353637383941429E
:1020E0004344454600303132333435363738396170
:1020F0006263646566000000F8B5C046F8BC08BCC1
:102100009E4670472901000089050000F8B5C046C9
:10211000F8BC08BC9E467047010100003021000059
:10212000B800002090000000D00000000000000077
:102130000000000018020020F41F0000F81F00003B
:10214000010000000000E02EC05D0000180000004B
:1021500000366E01040404000000000000000000CE
:10216000000000000000000000000000000000006F
:102170000000000000000000C1200000000000007E
:10218000000000000000000000000000000000004F
:10219000000000000000000000000000000000003F
:1021A000000000000000000000000000000000002F
:1021B0000000000000000000E0000020000000001F
:1021C000000000000000000000000000000000000F
:1021D00000000000000000000000000000000000FF
:1021E00000000000000000000000000000000000EF
:1021F00000000000000000000000000000000000DF
:10220000004000201122000033D6000033D6000029
:1022100010B5034B83F308880BF00CFC0BF02EFA7F
:102220000040002070B572B699223B4BC7211A605E
:102230003A4A3B4B49001A6031223A4B00251A605A
:10224000394B2F3A1A600523384A20241360384A44
:102250001160384A13601222374B1A600BF0D8FB1A
:1022600030200BF0E3FEBC22344B92011A60344B59
:10227000344A35491A60C02292000A6033490D2061
:10228000196033490A60E821324A49011A60324A2A
:102290001160F821314A49011A60314A1160314A0E
:1022A00031491A60314A1560314A1A604522314B72
:1022B0001C60314B1A60314B033A1A60304B013AC3
:1022C0001A60304B02321A602F4B01321A602F4BCA
:1022D000043A1A600BF0DEFD0D200BF007FE8020A3
:1022E0002B4BC0051D600BF0ADFB0322294B0120D9
:1022F0001A608022284B12061A600822274B1A60A7
:10230000274B1C600EF07EFC62B60BF03DFF2549AA
:1023100004200BF069FF70BD00030240FF0F0000B6
:102320000004024008030440180304400004044071
:102330000804044018040440300010401403014015
:102340000000014045FF00800803014042FF00807B
:102350000403014041FF00800C03014043FF008063
:102360001003014044FF008041DD000000030140F4
:1023700040FF008028000340480101403001014037
:102380002C0101400801014004010140000101400D
:102390000C0222403000304000003A4000033A4036
:1023A000000E3F40F50B010010B5064C2378002BC2
:1023B00007D1054B002B02D0044800E000BF0123E9
:1023C000237010BD5803002000000000149201008B
:1023D000084B10B5002B03D00749084800E000BFA8
:1023E00007480368002B00D110BD064B002BFBD023
:1023F0009847F9E7000000005C03002014920100F8
:10240000B80000200000000070470000F0B508226E
:1024100087B07D497D4816F0E7F87D4C0822210001
:102420007C4816F0E1F82100102208317A4816F0B5
:10243000DBF800265823794C012726706670A670B9
:10244000E67026716671A671E6712672637205F0F8
:1024500019FBE121724D734B7F423A00490228007B
:10246000029301963B0000970CF072F810F09AFD71
:102470006D4B6E481E7001F001FF06211A2010F00E
:1024800063F931001A2010F095F9FA20400010F09D
:1024900062FA33003A00390065480CF051F9654999
:1024A00028000CF0D1FA624F059601363800310051
:1024B0000CF033FA38000CF03FFA002874D15E4972
:1024C00028000CF0A6FA0F2E03D85C4928000CF067
:1024D000A0FA3100102228000CF0F6FA5849280022
:1024E0000CF0B2FA5A2E2AD004D8232E0FD0402E48
:1024F00014D055E0762E29D0772E3DD0682E4FD1BE
:10250000504928000CF0A0FA0123237248E04E49FC
:1025100028000CF099FA0123637141E04B4803F065
:10252000FBFF4B4912F06AF800285FD0474803F0E0
:10253000F3FF484912F04EF800285ED156E04649B4
:1025400028000CF081FA0123A37029E020000C3050
:1025500002F0D0FE002808D1404928000CF074FA9F
:102560002300012234331A701AE03D4928000CF090
:102570006BFA0123637013E020000321363002F070
:1025800053F8002806D1374928000CF05DFA0123E2
:10259000237005E0344928000CF056FA0123E3705B
:1025A000059B0133059310E004280ED12F49280024
:1025B0000CF02FFA0F2E03D8204928000CF029FA2E
:1025C0001022310028000CF083FA0136F6B27F2E7B
:1025D00000D06BE7059B002B03D1254928000CF0A8
:1025E00033FA38000CF0B4F807B0F0BD21492800E8
:1025F0000CF02AFA01232371D2E71F4928000CF0BE
:1026000023FA0123A371CBE738970100D5000020FE
:1026100038970100F4040020DD000020740300203E
:1026200058130020204E0000DD0400205405002037
:102630006C130020509701005C970100F49E01008C
:102640007B970100999701007F9701007A05002090
:102650000000C8C20000C8428C970100A797010083
:10266000B4970100C1970100CE970100DB970100EC
:10267000F79701000C9801001A9801002A4B70B5D9
:102680005D6D2A49281C1C6D11F0C2FF002805D081
:102690002749281C11F0A8FF002820D12349281C15
:1026A00011F098FF002807D0281C14F0C7FD214A1C
:1026B000214B13F025FF0AE0281C14F0BFFD1F4A30
:1026C0001F4B13F01DFF1F4A1F4B12F0C9FF0022C2
:1026D0001E4B13F015FF14F005FE051C00E01C4D09
:1026E0001C49201C11F08AFF002807D11A49201C20
:1026F00011F070FF002802D0174C00E0154C201C90
:1027000014F09CFD154A164B13F0FAFE154A164BB1
:1027100014F070F900220D4B13F0F2FE14F0E2FDFC
:10272000291C12F01BF970BD740300200000184230
:10273000000028429A9999999999793F111111119C
:10274000111171BF8CBAD6DEA7AADA3F000059403A
:102750000000C8410050434700409C451E82BD9C7C
:10276000EC79F13E565555555555B53FF8B51F4DC9
:102770002800583002F0F2F928001D4F1D493A0098
:102780005C300DF0A1FB28001B496C3003F02AFCE3
:102790001A4C2321200026002430303601F0ECFDB5
:1027A000300002F091FF3A00154930000DF08CFB2B
:1027B0002800363001F0C4FE230000226C331A805A
:1027C0005A809A80626768321A730023221D8C3403
:1027D00023600C4C482120001C30D36702F0A6FC7B
:1027E00020003121243003F095FFF8BD7403002050
:1027F000BC000020092400006C130020F40300201A
:10280000CF56000074040020F0B5062199B01A20BC
:102810000FF09AFF00211A200FF0CCFFFA200024BD
:10282000400010F098F8F94BF94F1C703B78A34228
:1028300000D111E101237B72F64BF74930331800C8
:102840001D0003F0A7FBFA20800010F084F821009F
:102850000522280002F08AFF05220121280002F04B
:1028600085FF05220221280002F080FF02212800B6
:1028700002F0B5FFA02196224900280002F0D0FF07
:10288000E64E012334000193E54B40342100E54A34
:1028900028000093E44B03F085FAFA20400010F082
:1028A0005AF801230193DE4BDE4A210028000093F1
:1028B000DD4B03F077FA306C14F046FC0022DB4B62
:1028C00013F0FAF914F00EFDB064F06B14F03CFC58
:1028D0000022D74B13F0F0F914F004FD7865B06BCB
:1028E00014F032FC0022D14B13F0E6F914F0FAFC9C
:1028F000F064706C14F028FC0022CC4B13F0DCF96F
:1029000014F0F0FC3865FFF7B9FE3065C9480BF0EC
:102910001FFFBE4BC84D1C780123B06C2B5514F023
:102920008DFC0022C14B12F09BFE0022C34B13F022
:10293000E7FD14F0D3FB631C0212DBB2EA54A31CC4
:10294000DBB2E854786D14F079FC0022BB4B13F035
:10295000D7FD14F0C3FBE31C0212DBB2EA54231DC3
:10296000DBB2E854F06C14F069FC0022B34B13F0B6
:10297000C7FD14F0B3FB631D0212DBB2EA54A31DC2
:10298000DBB2E854386D12F0C3FDE31D0212DBB276
:10299000EA5423000833DBB2E854306D12F0B8FD7E
:1029A000230009330212DBB2EA5423000A34E4B2F2
:1029B0002855A34C954A0B33A249200013700CF004
:1029C00028F8B06C14F03AFC022502000B000095C8
:1029D00020000CF067F99C4920000CF01AF8786D83
:1029E00014F02CFC009502000B0020000CF05AF9AA
:1029F000964920000CF00DF8706D14F01FFC009546
:102A000002000B0020000CF04DF9914920000CF061
:102A100000F8F06C14F012FC009502000B0020008E
:102A20000CF040F98B4920000BF0F3FF386D14F0E7
:102A300005FC009502000B0020000CF033F98649DC
:102A400020000BF0E6FF306D14F0F8FB009502005B
:102A50000B0020000CF02FF96D4D6B78002B00D18E
:102A6000A4E0280002230C306B7202F043FC002823
:102A700003D17A4972480BF0E7FFFA202C0080005E
:102A80000C340FF068FF200002F0EEFC634EB064DF
:102A9000200002F05BFD14F099FB0022634B13F061
:102AA0000BF914F01FFCF064200002F001FD12F09D
:102AB00099FD68655F480BF04BFE544B5E4F1C78E8
:102AC0000223B06C3B5514F0B9FB0022574B12F0B7
:102AD000C7FD0022594B13F013FD14F0FFFA631CDD
:102AE0000212DBB2FA54A31CDBB2F854686D14F086
:102AF000A5FB0022514B13F003FD14F0EFFAE31C89
:102B00000212DBB2FA54231DDBB2F854F06C14F05D
:102B100095FB0022494B13F0F3FC14F0DFFA631D20
:102B20000212DBB2FA54E31D0634E4B23855444CC9
:102B3000364A4B49200013700BF06BFFB06C14F059
:102B40007DFB0B0002210200009120000CF0AAF88E
:102B50003D4920000BF05DFF686D14F06FFB0B002A
:102B600002210200009120000CF09CF8374920005F
:102B70000BF04FFF706D14F061FB0B00022102009F
:102B8000009120000CF08EF8314920000BF041FF3D
:102B9000F06C14F053FB0B000221020000912000A6
:102BA0000CF080F82F4920000BF04EFF184C2379D1
:102BB000002B00D1DDE00423260063720023583689
:102BC000164D40213000AB6502F002F8FA204000BB
:102BD0000FF0C1FE300002F035F814F083FBA8645A
:102BE000300002F049F814F07DFB124E60653000B1
:102BF0000BF0AEFDAF6C1C49381C11F0FFFC002837
:102C000059D01A4BAA6D1B6832E0C046ED00002077
:102C100074030020F4030020A08601007404002047
:102C2000B8040020B0040020AC040020000059408B
:102C300000408F406C130020FC0400200000244062
:102C40005813002026980100339801003C98010099
:102C5000479801005898010065980100729801009A
:102C6000809801008D9801000000F042C000002013
:102C70009A4226DA270058374021380001F0A8FF91
:102C8000FA2040000FF067FE380001F0DBFF14F07F
:102C900029FBA864380001F0EFFF14F023FB606506
:102CA00030000BF055FDFA20AB6D40000133AB65F1
:102CB0000FF051FE9EE7CE49381C11F09FFC002812
:102CC00006D00023CB49CC48AB6463650BF0BCFE57
:102CD0002000583001F044FFC84BC94E1D78042332
:102CE000C84F7355B86C14F0A9FA0022C64B12F005
:102CF000B7FC0022C54B13F003FC14F0EFF96B1C7A
:102D00000212DBB2F254AB1CDBB2F054606D14F073
:102D100095FA0022BD4B13F0F3FB14F0DFF9EB1C26
:102D20000212DBB2F2546B1D0435EDB27055B24D98
:102D3000B24AB749280013700BF06BFEB86C14F060
:102D40007DFA022602000B00009628000BF0AAFF75
:102D5000B04928000BF05DFE606D14F06FFA00962C
:102D600002000B0028000BF09DFFAB4928000BF080
:102D70006BFEAA4B9A781F00002A00D1E5E00323DE
:102D80003E007B7200239F4C5C365A213000A365C5
:102D9000250001F0ACFEFA205C3580000FF0DBFD71
:102DA000022229009E480AF05FFA2B786A781B02FB
:102DB000134322005E321380002B0FD02500994967
:102DC00060358D482B800BF024FE29880A228A4822
:102DD0000BF0ACFE2988300001F0B6FE92480FF0EF
:102DE000BAFD3D005C35280001F0BBFD0028F8D09D
:102DF000280001F0F9FD280001F060FD14F072FADE
:102E0000A064688912F0EEFB3865288912F0EAFBAD
:102E10002065280001F00BFE2600210060365C31A1
:102E200003123080487002227D480B700AF08CF942
:102E3000714D7E4928000BF0ECFD31880A222800F4
:102E40000BF074FE7A4E30000BF082FC03963E6D60
:102E50007849301C11F0D2FB002826D0764BA26DA9
:102E60001B689A4227DA38005A215C3001F03FFE95
:102E7000FA2080000FF06FFD3E005C36300001F05C
:102E800070FD0028F8D0300001F0AEFD708912F01E
:102E9000A9FB3865308912F0A5FB206503980BF07B
:102EA00057FCA36D0133A365D1E76249301C11F0D3
:102EB000A5FB002806D00023604928003B65236558
:102EC0000BF0C2FD4D4B4E4E1C780323386D33552D
:102ED00012F01EFB631C0212DBB2F254494DA31C1C
:102EE000DBB2F054286D12F013FBE31C0212DBB2CC
:102EF000F254631D0434E4B230553F4C3F4A50490C
:102F0000200013700BF085FD386D14F097F9022640
:102F100002000B00009620000BF0C4FE494920007F
:102F20000BF077FD286D14F089F9009602000B0074
:102F300020000BF0B7FE6035434920000BF069FD1F
:102F400029880A2220000BF0F1FDFB78002B00D12C
:102F5000D8E005233D007B7200232A4C363503213F
:102F60002800A36501F060FBFA2040000FF0F3FC9D
:102F7000280001F0B9FBA064280001F0EDFB12F07D
:102F8000E9FA324911F060FE294DE06428000BF0A7
:102F9000DFFBA66C1649301C11F030FB002857D01F
:102FA000254BA26D1B689A4258DA3E003636032143
:102FB000300001F039FBFA2040000FF0CCFC30006B
:102FC00001F092FBA064300001F0C6FB12F0C2FADF
:102FD0001E4911F039FEE06428000BF0B9FBFA201D
:102FE000A36D40000133A3650FF0B5FCD1E7C046E7
:102FF0000000F0429298010058130020ED000020DC
:10300000FC0400207404002000005940000024400B
:103010009C98010033980100AA98010074030020D5
:1030200000F4FF0FAE98010088130000BE98010065
:103030006C13002000DC7F47C0000020CF98010007
:10304000D9980100E8980100F69801000000C842F4
:103050008449301C11F0D2FA002806D0002382499E
:103060008248A3647B650BF0EFFC814B814D1C789B
:103070000523814E2B55B06C14F0E0F800227F4BF5
:1030800012F0EEFA00227E4B13F03AFA14F026F812
:10309000631C0212DBB2EA54A31CDBB2E854F06CEE
:1030A00014F0CCF80022764B13F02AFA14F016F83C
:1030B000E31C0212DBB2EA54631D0434E4B2285567
:1030C0006A4C6B4A6F49200013700BF0A2FCB06C85
:1030D00014F0B4F8022502000B00009520000BF05C
:1030E000E1FD694920000BF094FCF06C14F0A6F8A7
:1030F000009502000B0020000BF0D4FD6349200076
:103100000BF0A2FC7B79002B4BD006230026604CF1
:10311000594D2434212120007B72AE6501F08CF9D9
:1031200064200FF018FC3100200001F097F9686569
:1031300064200FF010FC3100200001F08FF9686569
:10314000200001F023F953480BF002FB484B494E95
:103150001C780623686D335514F070F80022484B34
:1031600013F0CEF913F0BAFF631C0212DBB2F25473
:10317000E31C0234E4B230553C4C3D4A4649200041
:1031800013700BF046FC686D14F058F80B00022128
:103190000200009120000BF085FD404920000BF05B
:1031A00053FC3B0034331B78002B00D1D7E00723BE
:1031B0003D007B7200236C352F4C5822762128006D
:1031C000A36503F025F8FA2040000FF0C4FB0423A8
:1031D00002220321280001930093013302F023FF10
:1031E000280003F059F8A064280003F079F82C496E
:1031F00011F02AFD274DE06428000BF0A9FAE66CD7
:103200002849301C11F0FAF900284FD0264BA26D46
:103210001B689A4250DA3E006C3658227621300004
:1032200002F0F6FFFA2040000FF095FB0423022283
:103230000193009303210133300002F0F4FE3000CB
:1032400003F04EF8164911F0FFFCE06428000BF083
:103250007FFAFA20A36D40000133A3650FF07BFBDA
:10326000CDE7C0460000F042079901005813002046
:10327000ED000020FC0400207404002000005940F0
:1032800000002440119901001E99010026990100B7
:10329000F40300206C1300202A9901003B990100DF
:1032A0000000C84200C09444C0000020B949301C4E
:1032B00011F0A4F9002805D00023B749B748E3640A
:1032C0000BF0C2FBB64BB74D1C780723B64E2B55FF
:1032D000B06C13F0B3FF0022B44B12F0C1F900221E
:1032E000B34B13F00DF913F0F9FE631C0212DBB2BD
:1032F000EA54A31CDBB2E854F06C13F09FFF0022E9
:10330000AB4B13F0FDF813F0E9FEE31C0212DBB245
:10331000EA54631D0434E4B22855A04CA04AA549E0
:10332000200013700BF075FBB06C13F087FF0225C3
:1033300002000B00009520000BF0B4FC9E49200019
:103340000BF067FBF06C13F079FF009502000B00A7
:1033500020000BF0A7FC994920000BF075FBBB790E
:10336000002B64D00122964C524211000023200011
:103370000BF0E6F9FA2040000FF0EDFA914D28002D
:1033800003F0CAF8884EB064280003F0A5F8786509
:1033900020000BF0DDF9824B824D1C780723B06CC6
:1033A0002B5513F04BFF0022804B12F059F90022ED
:1033B0007F4B13F0A5F813F091FE631C0212DBB2F1
:1033C000EA54A31CDBB2E854786D13F037FF0022F7
:1033D000774B13F095F813F081FEE31C0212DBB279
:1033E000EA54631D0434E4B228556C4C6C4A7649A7
:1033F000200013700BF00DFBB06C13F01FFF0225C3
:1034000002000B00009520000BF04CFC6F492000DF
:103410000BF0FFFA786D13F011FF009502000B001E
:1034200020000BF03FFC6A4920000BF00DFB694BBC
:10343000DB79002B6ED05C4F1C37380001F07EFE2C
:103440000021380001F0C4FE01210600380001F01F
:10345000BFFE02210500380001F0BAFE032104007E
:10346000380001F0B5FE08214D4B4E4A9C461B78B2
:10347000D15431B20391039F591CC9B23F12575422
:10348000991CC9B256542FB2D91CC9B23E12565417
:10349000191DC9B2555426B2591DC9B23512555419
:1034A000991DC9B2545405B2D91DC9B22C12545435
:1034B00019006446093121700833384CDBB2D0540E
:1034C000454920000BF0A5FA0A22039920000BF0D1
:1034D00029FB424920000BF09CFA0A223900200007
:1034E0000BF020FB3E4920000BF093FA0A2231003A
:1034F00020000BF017FB3B4920000BF08AFA0A2250
:10350000290020000BF00EFB20000BF08BFA2C485A
:103510000BF01EF92F4B214C1A7A002A00D1CBE276
:10352000314D0A222E00264F6C36390030005A7277
:1035300001F0F4FB1821300001F00CFC18213000E0
:1035400001F09CFD0221300001F07EFC0B2304AA57
:103550009B181900300001F0E3FB03950597002844
:1035600046D1224915A80BF011FC04ABD97A0A22E6
:1035700012A80BF02FFC12A915A80BF06FFC01008C
:1035800020000BF057FA12A80BF0A5FB15A80BF0C2
:10359000A2FB31E000C094440799010058130020B9
:1035A000ED000020FC0400207404002000005940BD
:1035B000000024403E990100499901008D980100C6
:1035C0006C1300207A0500205699010060990100D3
:1035D0006D99010074030020709901007F9901002A
:1035E000879901008F990100F40300209799010049
:1035F000AC4920000BF028FA039D6C35280001F03F
:10360000DAFC002870D1280001F0F3FC071C0790B9
:10361000280001F0F4FC0890061C280001F0F5FCDD
:1036200004900990280001F0F6FC9F490A90051CBF
:1036300015A80BF0ABFB0222391C12A80BF0DBFB28
:1036400012A915A80BF00AFC010020000BF0D7F915
:1036500012A80BF040FB15A80BF03DFB934915A8F1
:103660000BF094FB0222311C12A80BF0C4FB12A930
:1036700015A80BF0F3FB010020000BF0C0F912A815
:103680000BF029FB15A80BF026FB894915A80BF0B8
:103690007DFB0222049912A80BF0ADFB12A915A81C
:1036A0000BF0DCFB010020000BF0A9F912A80BF0D5
:1036B00012FB15A80BF00FFB7E4915A80BF066FB5B
:1036C0000222291C12A80BF096FB12A915A80BF0D8
:1036D000C5FB010020000BF0ADF912A80BF0FBFABE
:1036E00015A80BF0F8FA03E0734920000BF0ACF9D1
:1036F000039D6C35280001F0E9FC002854D1280016
:1037000001F002FD071C0B90280001F003FD0C9056
:10371000061C280001F004FD68490D90051C15A841
:103720000BF034FB0222391C12A80BF064FB12A927
:1037300015A80BF093FB010020000BF060F912A814
:103740000BF0C9FA15A80BF0C6FA5D4915A80BF0E5
:103750001DFB0222311C12A80BF04DFB12A915A86B
:103760000BF07CFB010020000BF049F912A80BF0D4
:10377000B2FA15A80BF0AFFA524915A80BF006FBE8
:103780000222291C12A80BF036FB12A915A80BF077
:1037900065FB010020000BF04DF912A80BF09BFA1D
:1037A00015A80BF098FA03E0474920000BF04CF9FC
:1037B000039D6C35280001F061FB002800D08DE0EE
:1037C000280001F091FB071C0F90280001F0A3FBDB
:1037D0001090061C280001F0D7FB039011902800E0
:1037E00001F0B0FB39490E90051C15A80BF0CEFA7C
:1037F0000222391C12A80BF0FEFA12A915A80BF030
:103800002DFB010020000BF0FAF812A80BF063FA70
:1038100015A80BF060FA2E4915A80BF0B7FA022292
:10382000311C12A80BF0E7FA12A915A80BF016FB31
:10383000010020000BF0E3F812A80BF04CFA15A8D9
:103840000BF049FA234915A80BF0A0FA02220399BC
:1038500012A80BF0D0FA12A915A80BF0FFFA01007C
:1038600020000BF0CCF812A80BF035FA15A80BF0DD
:1038700032FA194915A80BF089FA0222291C12A85C
:103880000BF0B9FA12A915A80BF0E8FA0100200014
:103890000BF0D0F812A80BF01EFA15A80BF01BFACB
:1038A00020E0C046AA990100BF990100C899010013
:1038B000D3990100DE990100EC990100059A0100FD
:1038C0000D9A0100179A0100219A0100399A01000E
:1038D000409A0100499A0100529A0100C049200013
:1038E0000BF0B2F805980AF033FF0A21BD48BE4A32
:1038F0000378D15407A90E785D1CEDB256554E7869
:103900009D1CEDB256558E78DD1CEDB25655C9782A
:103910001D1DEDB2515508A90E785D1DEDB256552D
:103920004E789D1DEDB256558E78DD1DEDB2565583
:103930001D00C9780835EDB251551D0009A90E7852
:103940000935EDB256551D004E780A35EDB2565583
:103950001D008E780B35EDB256551D00C9780C351B
:10396000EDB251551D000BA90E780D35EDB256552F
:103970001D004E780E35EDB256551D008E780F3570
:10398000EDB256551D00C9781035EDB251551D00E8
:103990000CA90E781135EDB256551D004E78123532
:1039A000EDB256551D008E781335EDB256551D00FB
:1039B000C9781435EDB251551D000DA90E78153595
:1039C000EDB256551D004E781635EDB256551D0018
:1039D0008E781735EDB256551D00C9781835EDB201
:1039E00051551D000FA90E781935EDB256551D0021
:1039F0004E781A35EDB256551D008E781B35EDB256
:103A000056551D00C9781C35EDB251551D0010A941
:103A10000E781D35EDB256551D004E781E35EDB2AF
:103A200056551D008E781F35EDB256551D00C978CC
:103A30002035EDB251551D0011A90E782135EDB29A
:103A400056551D004E782235EDB256551D008E7824
:103A50002335EDB256551D00C9782435EDB25155C8
:103A60001D000AA90E782535EDB256551D004E7879
:103A70002635EDB256551D008E782735EDB25655D8
:103A80001D00C9782835EDB251551D000EA90E78DC
:103A90002935EDB256551D004E782A35EDB25655F2
:103AA0001D008E782B35EDB256551D00C9782C338C
:103AB0002D35DBB20570D1544C4E330062331B7888
:103AC000002B00D1DDE0300012AD243001222900AE
:103AD00002F02EFE002800D1CFE0454920000AF078
:103AE00098FF0027202120000AF019FDE95D10222F
:103AF000200001370AF0E8FF082FF3D10721280042
:103B000002F08EFEEB79834204D03A4920000AF09D
:103B10009BFF4DE120000AF085FF2B78222B0BD074
:103B2000282B07D0102B2DD1334920000AF071FF2C
:103B3000012306E0314900E0314920000AF069FF25
:103B40000023370024373800039302F00BFD2900CF
:103B5000380002F0C1FD01224421380002F089FD45
:103B6000FA2080000EF0F7FE380002F0FBFC29007E
:103B7000380002F0B1FD0022BE21380002F079FDCC
:103B8000002504E01F4920000AF043FF10E1300047
:103B9000243002F08FFD15AAA8540135092DF6D165
:103BA0005078137800021843039B00B2002B0CD00E
:103BB000D179C30018B210292AD190790C22101A99
:103BC00003329343C31818B222E0602312791340E2
:103BD00001D107331BE0202B16D11D3B17E0C04657
:103BE0006B9A0100ED000020FC040020740400200A
:103BF000829A0100A39A0100B59A0100CD9A0100B2
:103C0000E59A0100FC9A0100402B01D13F3B98430B
:103C100011F0A0FCF621890511F0E0F9654B664E24
:103C20001D786423654F7355B86413F007FB0022B9
:103C3000634B11F015FD0022624B12F061FC13F092
:103C40004DFA6B1C0212DBB2F254EB1C0235594ADE
:103C5000EDB270555C49200013700AF0DAFEB86CC2
:103C600013F0ECFA0B0002210200009120000BF08F
:103C700019F8564920000AF0E7FE5048243002F0B7
:103C80003DFD01211A200EF095FD00F0E3F907003B
:103C9000484D494E2B780212F2549A1C0133DBB284
:103CA000F0544B4920002A700AF0B3FE0A22390072
:103CB00020000AF037FF474920000AF0AAFE2978C1
:103CC0000A2220000AF004FF00272B78BB420ADDFD
:103CD000F15D102220000AF0F7FE3F4920000AF0B3
:103CE00098FE0137F1E720000AF09CFE60E012A880
:103CF0000AF0F1FFFFE715A80AF0EDFF06E012A8B1
:103D00000AF0E9FFFFE715A80AF0E5FF0CF0A6FBB3
:103D100012A80AF0E0FFFFE715A80AF0DCFFF5E7BC
:103D200012A80AF0D8FFFFE715A80AF0D4FFEDE7C4
:103D300012A80AF0D0FFFFE715A80AF0CCFFE5E7CC
:103D400012A80AF0C8FFFFE715A80AF0C4FFDDE7D4
:103D500012A80AF0C0FFFFE715A80AF0BCFFD5E7DC
:103D600012A80AF0B8FFFFE715A80AF0B4FFCDE7E4
:103D700012A80AF0B0FFFFE715A80AF0ACFFC5E7EC
:103D800012A80AF0A8FFFFE715A80AF0A4FFBDE7F4
:103D900012A80AF0A0FFFFE715A80AF09CFFB5E7FC
:103DA00012A80AF098FFFFE715A80AF094FFADE704
:103DB00019B0F0BDED000020FC04002074040020C8
:103DC000000059400000244044990100119B01006B
:103DD000139B0100249B0100AC980100204B70B59F
:103DE00018781D00042838D81E4C10F019FA031753
:103DF0001B2232000FF000F90FF062FF1A4E1B4930
:103E0000633632781A480A320AF0CCFD194B317801
:103E10001A79200000F04EF9012318E0200000F08C
:103E20009FF91CE0FEF7F0FC200000F0E7F9032307
:103E30000DE0FA210020890009F05AF90D4B9B682A
:103E4000C1180D4B2000196000F002FA04232B70FA
:103E500005E0200000F008FA01E000221A7070BDB1
:103E6000DD0400205405002074040020349B010070
:103E700058130020C0000020580500200122014BEB
:103E80001A707047D400002010B50378002B17D1AA
:103E900043780D4C002B08D10C4809F0AFFB237878
:103EA000002B0DD1023363700AE00434084809F096
:103EB000A5FB200007490EF0BDFA20000EF00AFA1B
:103EC0000122054B1A7010BDDC040020519B01003B
:103ED0005A9B010030750000D400002030B5144C0E
:103EE00089B0201D0EF072FA01256B4668461D70E0
:103EF00007F078F8002818D16B461A790D4B002A84
:103F000003D002221D7062700FE003A802705A1CD9
:103F10004260220009331832C360826007F0EEFA73
:103F20000423002800D00323637009B030BDC046CD
:103F3000DC040020D4000020037810B5042B01D14C
:103F4000FFF7CCFF10BD000070B543780400002BD4
:103F50002BD11022037982560E20215E134809F0DE
:103F60004DFB6379012B01D1FFF7B8FF637B002B79
:103F70001BD0637C0E49002B00D10E49E378227BD5
:103F80000D4809F03BFB0D4809F038FB0025237B69
:103F9000AB4207D9A3680A48595D013509F02EFBE9
:103FA000EDB2F4E7074809F029FB70BD769B0100EC
:103FB000689B01006F9B0100A99B0100CA9B010047
:103FC000D59B010084AE0100F0B51B4D87B0687E23
:103FD00001A906F097FF02AC002803D0002323704C
:103FE000A3600EE0154B164E1F78002F0BD115481D
:103FF00009F004FB337827702371134B2033A3603F
:104000006B7EA3810EE0114809F0F8FA01232370BA
:10401000337823710C4B2033A3606B7EA3810C4B50
:104020001B78E37305232000A37307F081FB431E75
:104030009841C0B207B0F0BDD4000020CE000020EF
:10404000CC000020DA9B0100DC040020DC9B010096
:10405000CD00002010B506211B200EF075FB0021BD
:104060001B200EF0A7FB13200EF04CFC04000121D6
:104070001B2064000EF09EFBA0B210BD10B5FFF730
:10408000E9FF13F061F8084A084B12F0B3FC020094
:104090000B0011F0E5FA0022054B12F031FA13F093
:1040A0001DF8C0B210BDC0469A99999999990D40D2
:1040B00000005940F0B5224C002621002000214B81
:1040C0008BB02366204B251D6366204B7031A366A1
:1040D0001F4B6030E3661F4B6667236706F080FD69
:1040E00028000EF073F91C4928000EF0EBF80223AB
:1040F00001AD2B70194B28001B7801272B7107F09D
:104100004BF8072328002B702F7107F045F8FF2389
:1041100007AD6E80AE80EE802E816E8104AE2B8066
:104120003000F23B3370059507F036F80C23300071
:104130003370756007F030F867700BB0F0BDC046A3
:10414000DC0400207D3E0000493F0000893E000065
:10415000393F00007D400000DD3E0000CF00002020
:1041600070B5214B86B01B7801AC204D204E002B42
:1041700014D0204920480AF067FC002323706B1CF0
:1041800063603300093518332000A360E56007F051
:10419000B5F90423002824D0032322E003222000C1
:1041A0002270636006F0F8FF04232370EB6920009F
:1041B000636006F0F1FF052323702B0020002033FD
:1041C000636006F0E9FF0623303520002370656048
:1041D00006F0E2FF012320002370237106F0DCFFCC
:1041E0000223737006B070BDD0000020D400002000
:1041F000DC040020FB9B0100581300207FB5124D0A
:104200002B78002B1ED0002301AC2000237006F079
:10421000E9FE0E4A13781600022B06D12279022AF3
:1042200003D02000237106F0B7FF3378002B06D1AE
:104230002279002A03D02000237106F0ADFFFFF79A
:10424000C3FE28707FBDC046D4000020D7040020E4
:1042500010B5044C043420000EF0ECF820000EF0F1
:1042600039F810BDDC04002010B508F003FF024B44
:104270005B6E984710BDC04624A00100F8B507004A
:104280000FF05AFC002860D0304B40331B78002BD5
:104290005BD02F4C20000AF0C5FB2E4D2B78002B55
:1042A00027D12D4920000AF0CFFB01211B200EF061
:1042B0004BFA2A4E1B200EF091FA00280AD10EF07C
:1042C000A9FF06211B200EF03FFA01211B200EF052
:1042D00071FA3AE0013E0120B6B20EF03CFB002E2E
:1042E000E8D106211B200EF02FFA01211B200EF031
:1042F00061FA0EF081FE1A4B38001A78194B1978C2
:10430000FFF7D8FE0FF04CFC2B781749002B00D09C
:10431000164920000AF098FB2878002813D1144B86
:10432000196808F0E5FE060020000AF07BFB114941
:10433000320020000AF036FB20000AF073FB310047
:104340003800FFF785FF04236B70F8BDD400002010
:1043500058130020DC040020069C0100B90B00006B
:10436000C4000020D70400202D9C0100439C0100C4
:10437000C8000020549C010045234370024B01708B
:1043800043600023037270479A99993F10B5024821
:104390000AF0DEF910BDC0466C1300200B00103B84
:1043A000DBB270B504000D00132B1DD801229A401A
:1043B0001300184A134217D0174E017830000AF044
:1043C000ACFA217A30000AF077F930000AF0B4FA3A
:1043D00006000A200EF0BFFA042E15D830000FF0A8
:1043E0001FFF080B0D0F11000C490D480AF036FB9A
:1043F0000AE0257201200CE00A4906E00A4904E0BF
:104400000A4902E00A4900E00A4905480AF026FB89
:10441000002070BD0B000B006C1300209B9C010062
:1044200058130020B89C0100E59C01001A9D010072
:104430004C9D0100689D010070B50D000121040034
:1044400049420A00002304480AF07AF929002000B2
:10445000FFF7A4FF70BDC0466C13002070B5037A4F
:1044600004000E00002B06D1304931480AF0F6FA5C
:10447000C020000659E02F4D017828000AF04DFABF
:10448000217A28000AF018F928000AF055FA237A50
:10449000202B14D3212B07D9232B10D160780B3B71
:1044A000002E06D1000105E06078B423002E00D173
:1044B0007823584345210FF051FF0EF04CFA217834
:1044C000022228000AF013FA022801D01A482CE030
:1044D00028000AF0A5F8060228000AF0A1F83043E7
:1044E00011F080F81449051C10F06EF80028EDD189
:1044F000607845280AD011F075F8011C0F4810F0BB
:10450000A3FB011C281C10F069FD051CEF22237A77
:10451000113B134205D1FC21281C890510F05EFDDA
:10452000051C6168281C10F08FFB70BDAB9D01005D
:10453000581300206C130020000080BF00008A4246
:104540007047030010B5C48A828A0C1B54431021A3
:10455000595E0E22805EE4130919C0020FF0FEFEC0
:10456000001910BD70B50E001500084C7721200011
:104570000AF0C4F9310020000AF09EF8290020005A
:104580000AF09AF820000AF0D7F970BD6C130020E9
:1045900070B50D000E4C772120000AF0AFF929000C
:1045A00020000AF089F820000AF0C6F920007721DF
:1045B0000AF0A4F90122772120000AF098F92000DE
:1045C0000AF02EF8050020000AF0B6F9E8B270BD36
:1045D0006C13002070B50D00124C772120000AF0FA
:1045E0008DF9290020000AF067F820000AF0A4F9EC
:1045F000200077210AF082F90222772120000AF0B8
:1046000076F920000AF00CF885B220000AF008F8CC
:104610002D02ADB20543ADB220000AF08DF928009D
:1046200070BDC0466C13002010B50B1C040003299C
:1046300000D9032301225242110023702248002393
:104640000AF07EF8D0212000FFF7A2FF00235528B2
:1046500037D1AA212000FFF7BDFFAC2160802000E8
:10466000FFF7B8FFAE21A0802000FFF7B3FFB02115
:10467000E0802000FFF7AEFFB22160822000FFF74C
:10468000A9FFB421A0822000FFF7A4FFB621E08299
:104690002000FFF79FFFB82120812000FFF79AFF3D
:1046A000BA2160812000FFF795FFBC21A081200086
:1046B000FFF790FFBE21E0812000FFF78BFF012371
:1046C0002082180010BDC0466C13002010B50400F5
:1046D0002E22F421FFF746FF05200EF03CF9F621CB
:1046E0002000FFF777FF10BD10B50400FFF7EEFFC5
:1046F00001002000FFF725FF0830001110F02AFF0D
:10470000014910F0A1FA10BD0000204170B505006C
:104710000278F42192013432D2B2FFF723FF2B78D2
:104720000520002B06D00820012B03D00E20022BE1
:1047300000D01A200EF00FF92800F621FFF74AFFEB
:10474000F82104022800FFF723FF08232A782043DA
:104750009B1AD84070BD0000F8B50600FFF7B6FF01
:1047600005003000FFF7D2FF290004003000FFF7FA
:10477000E8FE234B0622B15EC0180300434308271E
:10478000F25F1B1341435A434913121489188022C4
:104790000231120289108918728A357851430A272A
:1047A000F25FC90B53430427F25FDB125043C01280
:1047B0001B180220325E92009B18AB40032202338A
:1047C000D8171040C3180F489B10E840E31A58430D
:1047D000002803DB40000FF037FD02E00FF034FD4E
:1047E0004000094903120A005B435A43074B434305
:1047F00019141314064ACB189B181B11C018F8BDC6
:1048000060F0FFFF50C30000DE0B000043E3FFFF3A
:10481000CF0E00000378D807C00FC0B282009807FF
:10482000C00FDB06C0005B0F10431B01184370472D
:10483000012110B5494200230A00024809F080FF17
:1048400010BDC0466C130020F0B5002485B0009068
:10485000029103920193019B9C422BD21B1B1A1CB9
:10486000DBB2202B00D92022134D009B28001978A1
:10487000D7B20AF052F8029B2800E118C9B209F039
:104880001BFF28000AF058F8009B3A00197828000E
:104890000AF027F80026A519EDB2BE4202DBE419A2
:1048A000E4B2D8E7039B04485D1909F0B9FE01366C
:1048B0002870F0E705B0F0BD6C130020F7B501AD2E
:1048C0002A00042306210400FFF7BEFF6B88298815
:1048D0005BBA17489BB249BA584389B20FF0B4FC8F
:1048E00012F074FC0022134B11F0E6F901F0B4FF52
:1048F0000022114B11F0E0F9104A114B10F0B0FEFC
:1049000002000B0000200F4911F0D6F90E4A0F4BA0
:1049100012F070F8060060680F0012F08FFC0200C1
:104920000B003000390012F065F803B0F0BDC0464E
:10493000A0860100006AF8400068AA4083DBB5DC6D
:10494000E1796B3F0000F03F666666666612714073
:1049500013B56B46DC1D22000123FFF775FF20789D
:1049600016BD70B500210400FFF7F2FF0125060017
:10497000C2102A400221AA40237B2E40AB4333437E
:104980008B4306112E40134304228E409343C209E9
:104990002A4033430631D2008B4313432373EB4049
:1049A0002B40180070BD70B500210400FFF7D0FF48
:1049B00001210500227B0D408A43C3100B402A438E
:1049C00002258B40AA431A43042305119A43C309C5
:1049D00008200D40AD002A430B40DB0082431A4300
:1049E00010002273084070BD13B50400FFF7B9FF33
:1049F00003000020834219D008236A4620000221C8
:104A0000FFF722FF6B466A461B7852781B0213435E
:104A100063816B466A469B78D2781B0213432381DD
:104A20000123207B184001D06B46587916BD13B581
:104A300001AC022322001121FFF706FF208840BAB3
:104A400080B216BDF8B50F001E001500084C0178A5
:104A5000200009F062FF3900200009F02DFE32002D
:104A60002900200009F0C3FD200009F065FFF8BD12
:104A70006C13002037B5042405002200054901A865
:104A800013F0B2FD2800230001AAFF21FFF7DAFF8F
:104A900037BDC046CE9D010007B513006A460732F8
:104AA00013700123FFF7CEFF07BD07231C22194017
:104AB0008B00417B10B591431943040041730D30C5
:104AC000FFF7A8FE012102002000FFF7E5FF10BD5F
:104AD0000222437B10B59343437304000D30FFF76C
:104AE00099FE012102002000FFF7D6FF10BD10B58E
:104AF00004000170FFF79CFE2000FFF7BBFF64205D
:104B00000DF029FF20212000FFF722FF812801D08E
:104B1000002018E00023F4211A002000FFF792FF84
:104B200064200DF018FF2000FFF73DFF0028EFD1B3
:104B3000237B1B07ECD52000FFF7CAFF20000121D3
:104B4000FFF7B3FF012010BD07B50B0A01AA1370D0
:104B5000517002231121FFF775FF07BD7047000058
:104B600010B5024809F0F4FD10BDC0466C130020DA
:104B700070B50C4C0D1C0178200009F0CEFE02210E
:104B8000200009F099FDE9B2200009F095FD00210F
:104B9000200009F091FD200009F0CEFE0A200DF062
:104BA000DAFE70BD6C1300200B0010B50421012A41
:104BB00000D00021002B04D0012B06D10322914309
:104BC00002E003239943013B1943FFF7D1FF10BDD6
:104BD00010B5017001214942040000230A00044875
:104BE00009F0AEFD022220001100FFF7DDFF10BD2D
:104BF0006C13002070B50E000500114C01782000E8
:104C000009F08BFE3100200009F056FD200009F06C
:104C100093FE09200DF09FFE29780222200009F062
:104C200060FE200009F0FCFC0500200009F0F8FC03
:104C3000FF222B0212021340C0B2184370BDC046BF
:104C40006C13002010B50021FFF7D4FF12F07CFA9E
:104C50000022064B11F054FC0022054B11F050FCD1
:104C60000022044B11F0C6FE10BDC0460000F03E0D
:104C700000A064400000444010B50121FFF7BAFFD6
:104C800012F062FA0022044B11F03AFC0022034BAE
:104C900011F036FC10BDC0460000F03E0000594047
:104CA000F8B50500140080680F001E0009F035FEFD
:104CB000A868210003689B689847A86809F03CFE33
:104CC000041E15D132003900A86809F00AFEA86850
:104CD00003681B69984700280AD0A86803685B69C5
:104CE0009847A642F3D9069A631C1055DCB2EEE74A
:104CF000F8BD70B5040016001D00806809F00DFEB7
:104D0000A068310003689B689847A0682900036881
:104D10009B689847A06809F00FFE70BD81607047DE
:104D20000B0007B57522017B00930123FFF7B8FF45
:104D30000EBD0000836810B50200002B06D10448A8
:104D4000906001225242110009F0FAFC10BDC046E9
:104D50006C13002070B50D000400FFF7EBFF082D69
:104D60000AD003D88023002D09D013E0102D05D0E0
:104D70008323182D03D00DE0812300E08223DB057F
:104D80006361217B2B001C222000FFF7B2FF0A2069
:104D90000DF0E1FD70BD10B50B000A220C21FFF7EC
:104DA000A8FF0A200DF0D7FD10BD30B5040085B076
:104DB0000021FFF7F0FF03AD20000F21FFF7EBFF0D
:104DC0000095032310220C212000FFF769FF230028
:104DD0002A782B331A706A782D345A70AB78237086
:104DE00005B030BD30B50F2585B06D44017B012382
:104DF00000956B220400FFF753FF70222B782000F0
:104E000093432B70217B053AFFF773FF0A200DF0C7
:104E1000A2FD05B030BD30B50F2585B06D44017BD6
:104E20000123009537220400FFF73AFF02222B7876
:104E3000200013432B70217B3532FFF75AFF0A20E5
:104E40000DF089FD05B030BD70B504000D00FFF711
:104E500071FF2000FFF7C6FF2000FFF7DCFF2000F6
:104E6000FFF7A3FF20000021FFF795FF2900200096
:104E7000FFF791FF0A200DF06EFD70BD030007B52E
:104E800024330093032207230C21FFF709FF0EBDF3
:104E900070B50600080010F0A5FB8621C90510F0CA
:104EA000B1F912F0CBF900220D4B11F029FBFE23D2
:104EB00000229B0511F024FB00220A4B10F0D0FBCE
:104EC000040030000D0010F045FB12F0B7F90200AD
:104ED0000B002000290011F013FB12F003FA70BD43
:104EE0000000E03F0000F03F030070B504002B33EA
:104EF0001978831DD87F631DDB7F0002184300B241
:104F0000FFF7C6FF051C0023E05E10F023FB291C01
:104F10000FF024FD70BD030070B504002C33197828
:104F2000243BD87FE31DDB7F0002184300B2FFF76C
:104F3000AFFF051C0223E05E10F00CFB291C0FF0F4
:104F40000DFD70BD70B50400FFF7CEFF061C2000FC
:104F5000FFF7E1FF12F072F90D000400301C12F0AF
:104F60006DF92B00220001F073FC0022044B11F0BC
:104F7000C7FA0022034B10F09FFE12F0B3F970BD88
:104F800000806640FA210940030070B52D3319787E
:104F9000043B0400013B58781B780002184300B220
:104FA000FFF776FF051C0423E05E10F0D3FA291CFE
:104FB0000FF0D4FC70BD030007B50D33017B3B221D
:104FC00000930623FFF76CFE0EBD10B504004118D8
:104FD000A218487B537B0002184300B2404210F0F5
:104FE000B9FA61690FF0FAFFE02189050FF0F6FFC9
:104FF00010BD10B501220021FFF7E7FF10BD10B56D
:1050000003220221FFF7E1FF10BD10B505220421A4
:10501000FFF7DBFF10BDD0B5012200210400FFF730
:10502000D4FF12F00BF90B00020011F069FA032211
:1050300006000F0020000221FFF7C7FF12F0FEF864
:1050400002000B0011F05CFA3B00320010F008FB8C
:10505000052206000F0020000421FFF7B6FF12F022
:10506000EDF802000B0011F04BFA32003B0010F09B
:10507000F7FA01F079FC12F035F9D0BD70B50D00EA
:105080000400FFF757FE082D0AD003D8002D14D1D5
:105090000A4B08E0102D05D0182D0ED1084B02E068
:1050A000084B00E0084B2362217B2B001B222000D1
:1050B000FFF71FFE0A200DF04EFC70BD00007A4382
:1050C0000000FA440000FA4300007A44030007B5E8
:1050D0001833017B432200930623FFF7E1FD0EBD49
:1050E00010B504004118A218087E137E0002184370
:1050F00000B2404210F02EFA216A0FF06FFFE0215B
:1051000089050FF06BFF10BD10B501220021FFF7DC
:10511000E7FF10BD10B503220221FFF7E1FF10BD2C
:1051200010B505220421FFF7DBFF10BD01234370FA
:10513000033383700023017083807047012110B511
:10514000494200230A00024809F0FAFA10BDC0469D
:105150006C13002070B50E0015000A4C01002000F1
:1051600009F0DBFB3100200009F0A6FA290A200033
:1051700009F0A2FAE9B2200009F09EFA200009F035
:10518000DBFB70BD6C13002070B505000F4C0100F7
:10519000200009F0C2FB0021200009F08DFA200058
:1051A00009F0CAFB29000222200009F09AFB200026
:1051B00009F036FA0500200009F032FAFF222B022E
:1051C00012021340C0B2184370BDC0466C130020D9
:1051D00010B50400002003291ED8A388022907D097
:1051E000032907D0012901D00C4A04E00C4A02E04F
:1051F0000C4A00E00C4A1A4380231B021A43012187
:105200002078FFF7A7FF60780DF0A5FB2078FFF767
:10521000BBFFA378184180B210BDC0468341000097
:1052200083510000836100008371000070B50E009F
:105230001500084C7621200009F060FB31002000A9
:1052400009F03AFA2900200009F036FA200009F0A6
:1052500073FB70BD6C13002070B50D000D4C7621F2
:10526000200009F04BFB2900200009F025FA20005E
:1052700009F062FB01227621200009F038FB2000B2
:1052800009F0C7F90028FAD0200009F0C9F9C0B226
:1052900070BDC0466C13002070B50D00114C762116
:1052A000200009F02BFB2900200009F005FA20005E
:1052B00009F042FB02227621200009F018FB2000B1
:1052C00009F0A7F90128FADD200009F0A9F9050085
:1052D000200009F0A5F9FF222B0212021340C0B2F0
:1052E000184370BD6C13002010B5FFF7D5FF40BA0E
:1052F00080B210BD012270B504005242002311009B
:10530000434809F01DFAD0212000FFF7A5FF002334
:1053100060287BD188212000FFF7E6FF8A212080CA
:105320002000FFF7E1FF8C2160802000FFF7DCFF09
:105330008E21A0802000FFF7D7FF9021E080200081
:10534000FFF7D2FF922120812000FFF7CDFF9421AB
:1053500060812000FFF7C8FF9621A0812000FFF7A1
:10536000C3FF9821E0812000FFF7BEFF9A21208231
:105370002000FFF7B9FF9C2160822000FFF7B4FFF7
:105380009E21A0822000FFF7AFFFA121E082200034
:10539000FFF762FFE12120762000FFF7A5FFE32160
:1053A00060832000FFF758FFE42120772000FFF7FB
:1053B00053FFE52105002000FFF74EFF0F221040AC
:1053C0002B0105001D43E583E6212000FFF744FF84
:1053D000E52105002000FFF73FFF0009C0B22D01C5
:1053E0000543E72125842000FFF736FFE31CD8772B
:1053F0000522F2212000FFF719FFB722F421200037
:10540000FFF714FF64200DF0A6FA0123180070BD09
:105410006C13002070B50D00124C7621200009F0AD
:105420006DFA2900200009F047F9200009F084FAFC
:1054300003227621200009F05AFA2500280009F0FD
:10544000E8F80228FADD280009F0EAF8040228004A
:1054500009F0E6F80443280009F0E2F824022043AA
:1054600070BDC0466C13002010B5FA210400FFF790
:10547000D1FF228803129B1AC01152005B43801A8D
:105480000221625E1B1350430421625EC01253432B
:105490009B13C0180523606258438030001210F03F
:1054A00059F802490FF0D0FB10BDC0460000C842B9
:1054B00010B50400FFF7D8FFFD212000FFF7ECFE38
:1054C000204A636A80039B181E21625E1205801ABF
:1054D0002021625E80215A43821A8020C90152181D
:1054E000217F00025943C9120918E01CC07FD21362
:1054F00040B243439B124B4380219B1289035B18AC
:105500001A20215E207E4B43802189015B189B136A
:105510005A43D3135B43DB1143431B11D31AD843C4
:10552000C822C01703405205934200DD1300181330
:1055300011F04CFE0022044B10F0E2FF0FF0E2F8F5
:1055400010BDC04600D4FEFF0000503FF0B587B04C
:105550000290FFF789FFF7210298FFF75BFF012117
:10556000029B05905B6A56480093009A4942D31704
:1055700012184B4110001900009201930FF096F899
:10558000029B06000820185E0F00009A019BC117BD
:105590000FF08CF8030D0D031D43029B04030A203A
:1055A000185E32003B00C1170FF080F80B069C46D6
:1055B000020A60460B12024312196B411900802344
:1055C000100000221B0280185941029B0024DA8837
:1055D00000230FF06BF84B100393CB170493049A3E
:1055E000039B1343A34267D0029B32001020185E36
:1055F0003B00C1170FF05AF8029B06000E20185E00
:105600000F00009A019BC1170FF050F8C50B4B0417
:105610002B434204B6185F418022059B52031B11A5
:10562000D31ADD175A08E90711432200D807029B55
:105630000C255D5FEB0092197B41801A9941214A4C
:1056400000230FF033F8039A049B0EF0EBFFCB041A
:10565000440B1C43029B06001620185E4D130F00DE
:1056600022002B00C1170FF021F822002B000FF0B1
:105670001DF8CB01440E1C43029B32001420185E1F
:105680004D163B00C1170FF011F8A4197D41C20C53
:105690004E033243CB1412196B411C061912029BA4
:1056A000100A12229B5E2043DE171A0F35011543A4
:1056B0001C0124184D41240A200007B0F0BDC0464B
:1056C000000CFEFF350C000000230370704770478C
:1056D00070B50E001500094C0100200009F01DF9FD
:1056E0003100200008F0E8FF2978200008F0E4FFEE
:1056F000200009F021F9024870BDC0466C1300205B
:105700002C010020F8B50F0005001600114C01789F
:10571000200009F002F93900200008F0CDFF200038
:1057200009F00AF929780122200009F0DAF82000AE
:1057300008F06FFF3500084F3870AB1B3A78DBB2CA
:105740009A4205D9200008F06BFF28700135F4E774
:105750003800F8BD6C1300202D01002013B56B46F6
:10576000DC1D2200FFF7CEFF207816BD73B50500C3
:105770000E0014000020032930D8052A2ED8012954
:105780000CD081421AD0022928D174212800FFF7B9
:10579000E5FF6B46A400DA1D2F2317E072212800D5
:1057A000FFF7DCFF6B46DA1D5823184004437221D3
:1057B00028781470FFF78CFF30000FE07421280068
:1057C000FFF7CCFF6B46DA1D492364011840044300
:1057D000147028787421FFF77BFF012076BD73B524
:1057E0000E0075210500FFF7B9FFFF2E0ED06B46A6
:1057F000DC1D2423B6001E40473318403043207080
:10580000220028787521FFF763FF20784923801054
:10581000184076BD10B51D21FFF7A0FF10BD000098
:10582000F0B50F0085B0712104001600FFF796FF58
:1058300002ABDD1D002300902A00207870212B7020
:105840009F4201D09E4206D1FFF742FF4823009AB3
:105850009A4313006BE0FFF73BFFC823C72F06D91D
:10586000C8223B1C5200974200D9131C9BB202AACB
:10587000571D608A324A1421801858430EF06EFD7D
:10588000C8239B03C0180A210EF068FDC422238A96
:1058900092009B18584364214310E06A01930EF074
:1058A0005DFD0423FA21E356890058430EF056FDAE
:1058B000019BE1780002181804310EF04FFD0E2113
:1058C00083236156594380235B02C9180EF046FDBD
:1058D0002223FA385843642132300EF03FFD3A005B
:1058E00038705A212078FFF7F3FE164B9E4201D8FC
:1058F000002303E0FF2202AB9A7109E03F2E03D997
:105900000133B608DBB2F9E79B019E1902AB9E7129
:1059100000232A00702120782B70FFF7D9FE02ABFC
:105920009A1D20786421FFF7D3FE6B461B782B70FD
:1059300020782A007121FFF7CBFE012005B0F0BDD1
:1059400099590200BF0F0000F0B5E94CB3B00190C7
:105950000D004022210012A812F046FE2100402234
:10596000403122A812F040FE002D02D00198FFF72E
:1059700051FFE04D019B2800197808F0CEFF1D2152
:10598000280008F099FE280008F0D6FF019B0F229E
:105990001978280008F0A5FF280008F03AFE002634
:1059A000D54F38703A78F3B20EAC9A4205D9280038
:1059B00008F036FEA0550136F4E70F26A3781A0347
:1059C000E3781B0113432279120913430793237AC7
:1059D000627A1B021A430892A27B637B91099B00A7
:1059E0001943324009910A926579A379E2791B0142
:1059F0002D031D4312091543019AEB10958A6D0082
:105A00005D1BEE17F30768081843020033003100EE
:105A10000EF04CFE0A220B05000B1843019B0913E4
:105A20009A561201D3170EF041FE019B04001A2072
:105A3000185E2A0033000F00C1170EF037FEBF04B6
:105A40004905C00AA40B0843019B3C4304199C620E
:105A500005236343803305931B1204936B46102286
:105A60009B5E019A6410D362A44BE418E3170B9376
:105A7000A0089B071843E317020019000EF016FE5A
:105A80000C2206904B05C00A1843019B0D009A5644
:105A9000C912D3170EF00AFE8B0786081E43019B1E
:105AA0008F102020185E2200E317C1170EF0FEFDB4
:105AB00000184941801979418B0782081A438B10DD
:105AC0000393019B02921C20185E22000B9BC117BE
:105AD0000EF0ECFD46080B20CB071E43019B069AF7
