:100000000040002011000000FD040000FD0400007D
:1000100010B501F039F900F035FC00F08FFA00005E
:1000200070B572B699221C4B1C4D1A601C4B953A48
:100030001A601C4B7C321A601B4B763A1A601B4AC2
:100040001B4B18201A6002221A4B00241A6012233C
:100050002B6001F071F8F022174B12011A60174A59
:10006000174B18491A604022174B0D201C60174B84
:100070001A6000F095FF0D2000F0BEFF144B200029
:100080001C6001F009F9112303222B60114B1A6047
:10009000114B1D321A6070BD000302403000104049
:1000A0000000044008000440000304403104000044
:1000B00008030440180304400003014040FF00808F
:1000C0000000014025130000280003400401014006
:1000D0000C02224030003040000E3F400000000083
:1000E0000000000000000000000000000000000010
:1000F0000000000000000000000000000000000000
:1001000010B5064C2378002B07D1054B002B02D0ED
:10011000044800E000BF0123237010BD4801002007
:1001200000000000FC1F0000084B10B5002B03D09E
:100130000749084800E000BF07480368002B00D1CA
:1001400010BD064B002BFBD09847F9E700000000DC
:100150004C010020FC1F0000B8000020000000003F
:1001600010B5054C200001F04FF820686368010BC2
:10017000000589B2184310BDAC010020F8B5FFF7A7
:10018000EFFF00250C0422002B00801859412B00A2
:10019000220C801A99410B04040C1C43584B594DF6
:1001A000E118594B0A091A40584B09011940584B9C
:1001B0000A43D21893082B40564D92002A4013430D
:1001C000554AAC46554E9B18554D5A085B00324077
:1001D0002B401343534A54499B18544A1F0A1B028D
:1001E0000F4013403B4307013A00F027504D3F03B7
:1001F0002B60504B174023401F434F4B4B4AFF1877
:100200003B0A3F0217400B404C4A3B439B183D4A78
:100210009F08DB43174062469B0013401F43484B37
:10022000394AFF18FB431B091340384A3F01174066
:10023000444A3B439B183A4A5F085B0037401340EF
:100240003B436B60F02307041B053B403E4F374A9E
:1002500027403B43F02707401F433C4B0002FF1859
:10026000FB433F021B0A17400B40394A3B439B1894
:100270001F09DB43244A1B011740244A13401F4334
:10028000344B204AFF18FF43BB0813406246BF00AF
:100290001740314A3B439B18214A5F085B003740B7
:1002A00013403B43AB602D4B1C40F0231B01184017
:1002B0000443E0436400400814400640284B2643B2
:1002C000F6183309F643104A360113400F4A164018
:1002D0001E43244B154AF618F34336021B0A1940F5
:1002E0003240214B0A43D218D243064993080B40AF
:1002F000614692000A401A431C4BD218EA60F8BDCE
:1003000059C9947F333333330F0F0F0FF0F0F0F0F0
:100310004E384E0ACCCCCCCCDC84235755555555A1
:10032000AAAAAAAA247BDCA8FF00FF0000FF00FF06
:10033000B4010020FFFFF0FF41BD4B3946F6AC3F52
:10034000DAE94D414299797E0FFFFFF02DB1F6B207
:10035000B2C3ED1B731F94F5DBAEE973FFF0FFFF33
:1003600038E47C2339DEC7D99A0FEC4100C1C62896
:100370000023F0B585B06946114A9A1812785A548C
:100380000133102BF7D1009B1FBA019B1EBA029BB1
:100390001DBA039B1CBAFFF7F1FE0A4B00201A6836
:1003A00097420AD15A68964207D19A68954204D179
:1003B000D868001B4342434158B2C0B205B0F0BDFB
:1003C000F0F7FF0FB401002010B590B040220B49A8
:1003D000684601F0D7F9002318006C4608495A42D4
:1003E00059180978A25C914201D00130C0B2013B9A
:1003F0001A004032F1D110B010BDC04600200000FC
:10040000FF27000010B50A2000F022FE094800F086
:1004100065F80A2000F01CFE8022074B52001A608B
:10042000064A074B1A604022064B1A6000F076FC21
:1004300010BDC046402000000003014041FF008085
:1004400000000140B000002010B500F0D1F800F02D
:10045000D1FF002811D1063000F0B4FF012000F0D8
:10046000BDFF00F0C7FF002803D100F0ABFFFFF78E
:10047000C9FF002000F0A6FF14E000F0DBFF002819
:1004800010D1063000F0BEFF012000F0C7FF00F0E1
:10049000D1FF002803D100F0B5FFFFF7B3FF002024
:1004A00000F0B0FFFFF764FF002805D0642000F0E3
:1004B000CFFD00F033FC08E0FFF786FF002801D1F4
:1004C00000F02CFC044800F009F8642000F0C0FDA6
:1004D00000F09CF8FEE7C046532000000FB400B5C2
:1004E000B5B036AA02CA02A8019201F075F902A8B5
:1004F00000F036F935B008BC04B0184710B501F06B
:1005000015F903680C2B00D1FEE7FEE7030010B5D8
:1005100080240849084A08686401C3189A1AA2424C
:1005200001DC0B6005E001F001F90C230360012000
:10053000404210BDBC00002018020020F8B5002584
:100540000F49104B01394A1C14D000221F685C6807
:100550009E68A018B24203D0B858A0500432F8E701
:100560000200DE68141AA64201D020C2FAE7103356
:100570000139E8E701F0E0F8FFF766FFFEE7C04663
:10058000010000001C210000002370B50B480C4C3A
:100590000C4D9A002100032B00D8A958013381503B
:1005A0002C2BF6D1FFF73CFD074B1A68002A00D12F
:1005B0001A608022054B92051A6070BD0000002071
:1005C000FD04000000000000B000002008ED00E085
:1005D0008021064A10B5136809060B4313600820F2
:1005E00000F00AFD00F096F810BDC046000025405E
:1005F00010B5054C2378002B03D100F01DF8012322
:100600002370FFF7E5FF10BD6401002010B508203E
:1006100000F0FCFC00F090F8054A082013685B002D
:100620005B0813600022034B1A6000F0F9FC10BD58
:1006300000002540880F254070B5002407210425BF
:100640001C4A1D4B08201A601C4B1D4A1C601D4B88
:100650001A601D4B1D4A13601D4A11601D4A063960
:1006600014601D4A11601D4A13601D4B1C601D4B18
:100670001D6000F0CBFC0321082000F09DFC1A490E
:10068000082000F08DFC194B1C60194B1C60194BA5
:100690001C60194B1C60194B1D60194B1C601A68BB
:1006A000184B1A80184B1C60184B1C60184B1C70A0
:1006B00070BDC0460C0000020000254040002540EF
:1006C00001000A0048002540070000800003254083
:1006D0000403254010032540440025400002254026
:1006E0000402254050002540E9140000880E2540F2
:1006F000C80E2540480F2540080F2540C80F25404B
:10070000880F25406C010020C8010020C401002092
:10071000CC010020F021054A13688B4360390B435C
:100720001360034B1A88034B1A60704700030240A2
:100730006C010020880F2540F021064A13688B4386
:100740001360054B1A68E423DB001340034A13804F
:100750007047C04600030240880F25406C0100200E
:1007600010B504000134631E1878002802D000F090
:10077000A1FEF7E710BD004770B506000D0014009C
:10078000002802D0002000F055FC00207519002C34
:1007900005D0013C2B191B78C018C0B2F7E770BD1B
:1007A000FF23020070B59A43C0B01300541C6A4680
:1007B000FF34D51A1E78EE540133A342FAD1C3B2E6
:1007C000D45C8C4205D0000AD15480B2110000F0F4
:1007D0003BFB40B070BD0000013810B50B2830D88D
:1007E0000902494200F002FF06080A0C0E1014121A
:1007F00016191B20174B13E0174B16E0174B0AE096
:10080000174B12E0174B0BE0174B09E0174B02E0B8
:10081000174B00E0174BC91817E0174B05E0174BB3
:10082000C9180878C0B214E0154BC9180A7848787E
:100830008C780002230418430300C8781343000691
:1008400006E0002000F0F6FB00210B78487800025B
:10085000184310BDC0FF0100C1FF0100C5FF01002A
:10086000C9FF0100D0FF0100D1FF0100D6FF010048
:10087000D2FF0100D4FF0100D8FF0100DCFF01001E
:10088000E0FF01000C4B10B51A68102313400B4A0F
:1008900000D113601368802B0DD1002402202100A9
:1008A0001460FFF799FFA04205D021000220FFF756
:1008B00093FFFFF760FF10BD54000340B00000201D
:1008C000F8B5010004000320FFF786FF21000600B1
:1008D0000420FFF781FF210007000620FFF77CFFBF
:1008E0000025012828D021000320FFF775FF0136DD
:1008F0003602F7192E0001300002B84209D20378FF
:100900005A1ED2B2FD2A00D80126ED18EDB20130F0
:10091000F3E721000120FFF75FFF6D42EBB20625F0
:10092000834209D1002E07D0044B24026042C01834
:100930000121FFF735FF00252800F8BDD1FF010098
:10094000F0B5C24CA54400F009FE62B6002700973E
:100950000197962103AC46ADFF23220049002800F1
:1009600000F004FE0028F4D12188062900D8AFE168
:100970002A780423012A5CD16E88F21D8A4200D9AC
:1009800086E0962149008A4200D981E0AA1992792D
:10099000172A4ED1F3189BB2002B08D0DCAAAC4921
:1009A000D21852181278013B801880B2F3E7AB19C5
:1009B0005A7940421B79120280B21A4308238242BC
:1009C00037D167E0342B00D0D6E0009B012B00D05C
:1009D0007EE1032E00D07BE180220021520091A80D
:1009E000802700F0D8FE7F00182191ABD819FF3185
:1009F00002ABF21EC91800F0C5FE0423F619FF333E
:100A0000B6B29E4200D01BE116228B21FF3202AB10
:100A10009B18490002AA521810781B78000218434C
:100A20008C4B0700984200D824E1FF3BFF3B00932A
:100A30000933002546A8012143702B0AC370002307
:100A400002AA06320170291D1580857089B200291D
:100A500009D0DCAC7E4E6418A419247801391B1926
:100A60009BB289B2F3E7DCA97B4C49195B420C19B4
:100A70009BB22370794C1B0A0C192370784B0735F5
:100A8000C91817230B70A9B27F3300F0A0FD60E7EF
:100A90000323CEE76B782C79180031380A282ED939
:100AA000704A1568002D26D0009A012A25D106AC7F
:100AB00002AA13725681002147AE0C22200005962F
:100AC00000F069FEA660210004A8A8472623A58897
:100AD000FF339D4202D9A368B34207D0A268002A1F
:100AE00001D1002D04D12368DBB2A3E70E23A0E7D8
:100AF0000E2315009EE705239CE7052399E700F0E8
:100B00007FFD0B001B00CFFF61FF4300CFFF4900BB
:100B10005D0061FF7B009200009B012B00D0D7E0BD
:100B2000002E00D0D4E03000FFF7CAFE434243411C
:100B30002B713300009D7DE7009B012B00D0C7E0A7
:100B4000012E00D0C4E0002C00D0C1E0464B1B6851
:100B50001B685A0CD2B2002A02D1DB03DB0D01E084
:100B600080239B002B711B0A6B71FF23AB71FE3B33
:100B7000EB71002304255DE7009B012B00D0A7E06B
:100B8000022E00D8A4E02FE7009B012B00D09FE0AD
:100B90000027DEE6009B012B00D099E02C33F519ED
:100BA000FF339D4200DD73E791ABD819320047A9AE
:100BB00000F0E8FD0023AFB21D003BE7062E00D099
:100BC00086E02A4A06AB94461000190014C814C1E6
:100BD0006246013EF6B29019A919007A0979884255
:100BE00076D1002EF5D147AA03CB03C201233700EB
:100BF0000093082533001DE7009B012B68D1032ECD
:100C000066D116228B21FF3202AB9B18490002AA43
:100C1000521816781B7836021E430E4B9E4259D945
:100C2000F63BFF3B05E70020FFF74AFE002802D114
:100C300080220F4B1A6000F095FC00F0FDF947E0B0
:100C400001230027009302333D00F3E68CFCFFFFF5
:100C5000A7FDFFFFFF010000ACFDFFFFADFDFFFFA3
:100C6000AEFDFFFF70010020C00000209C200000AE
:100C7000B0000020274B1B681A68130AD2B29BB23F
:100C8000002A01D001339BB26402381984B29C421D
:100C900014D3019B002B0BD180221900520006A80F
:100CA00000F079FD06A91C4800F0CEF8012301935D
:100CB00091A9200000F0C8F8002804D001230027E3
:100CC00000930933C0E70123070000930300BBE74B
:100CD0000423AEE680226102891909025200002035
:100CE000FFF74AFD0500002C0ED10B4B9E420BD1A5
:100CF00021000520FFF770FD21002D1A0620FFF7C7
:100D00006BFDEDB22D1AEDB26D4246AB1D710023A5
:100D100001258FE6C0000020FF01000070B5002013
:100D2000FFF7CEFD431E98410624134D40422B6829
:100D300004401A68C021C03A0020FFF71DFD6B680F
:100D40001B78181AC0B2834203D12B681B68002B92
:100D500002D1002000F06EF9084B19681A004029F2
:100D600001D0002C03D000231360FFF7E9FD80229F
:100D70001A6000F061F970BDC0000020B0000020D2
:100D800082B06A460B4B0C4900930C4B01930C4B01
:100D90001A600C4A1160C0461A68120F0F2A04D05C
:100DA0001A680020120F0A2A01D01868C0B202B0D7
:100DB0007047C046B6E900001600008074010020AC
:100DC0000800104004001040094B0A4A0A491A6002
:100DD0000A4A1160C0461A68120F0F2A04D01A6816
:100DE0000020120F0A2A01D01868C0B27047C0460E
:100DF00008001040B6E80000150000800400104014
:100E000082B06A460B4B0C4900930C4B01930C4B80
:100E10001A600C4A1160C0461A68120F0F2A04D0DB
:100E20001A680020120F0A2A01D01868C0B202B056
:100E30007047C046B6EA0000170000807401002029
:100E40000800104004001040F0B50024304BC7B03B
:100E5000029406000394984255D8A14253D08022B0
:100E600006A8520000F08EFC2A4B2B4D0493FF2362
:100E70002A492B4A04AF7B602F600A60C0462A686B
:100E80000191120F0F2A03D02A68120F0A2A01D0EB
:100E90002C681C400294029B002B36D100F0DDFA36
:100EA0000400FFF76DFF0390039B002B02D1FFF7B7
:100EB0008BFF0290029B002B16D11A4A1A4904920A
:100EC000049A0198360416430496134A2F60016071
:100ED000C0462968090F0F2903D01168090F0A2994
:100EE00001D01368DBB20293039B002B07D1FFF7FD
:100EF00087FF0390039B002B01D0039B02932000EC
:100F000000F0AFFA01E004230293029847B0F0BD6D
:100F1000FF010000B6D70000080010400400104098
:100F200004000080B6D800000500008070B5050000
:100F300000F093FA0400102D04D803210E4A136820
:100F40008B4307E0202D07D803210B4A13688B43FE
:100F500002390B4313600AE0302D05D80321064AFD
:100F600013688B430139F4E7002000F063F8200098
:100F700000F077FA70BDC04630001040024A034BC3
:100F800011680B401360704700002240FFFFFFBF55
:100F9000024B18684000C00F7047C0460000224056
:100FA0001B2800D901BE034B8000C31818681960C4
:100FB0007047C04640000020F8B504000E00032929
:100FC00000D901BE1B2C00D901BE032725003D40DE
:100FD000BD400635AF40AE4000F03FFAA408054BD7
:100FE000A400E4182368BB431E43266000F039FACE
:100FF000F8BDC04600E400E01F2318401E3B8340BC
:10100000014A13607047C04600E100E01F2318400A
:101010001E3B8340014A13607047C04680E100E0F8
:101020001F2318401E3B8340014A13607047C0468F
:1010300080E200E001BE7047034A044913689BB296
:101040000B4313607047C0460CED00E00400FA0546
:1010500070B5802504002D02064BAC4205D95868B6
:1010600000F0F2F9044BE418F6E79868604300F0EA
:10107000EBF970BDC80000200080FFFF37B500F01D
:10108000FDF8002842D000F0E8F91C21204B214A4D
:101090001B6812689B008A400B40920F1833D340A4
:1010A00080251D491D4A04000868ED0110401C4AB6
:1010B0005A435219D20B013A0243192B01D8194B4A
:1010C0000EE0194D19481818EB18A0251A3B0078A6
:1010D0001B786D031B182A43FF2B00D9FF239B05A8
:1010E0001A43134D0A602B6830200193FFF71EFF4F
:1010F0008021104AC905136814200B431360FFF7C1
:10110000A7FF019B20002B6000F0ABF937BDC04664
:10111000080F0340280003400800224000F800C0E8
:1011200040420F000000D43FAA2000004DF3FF0F03
:101130003000104000002240F7B50500183D0400C3
:10114000182D46D80126244B3700EB409F4340D151
:1011500000F083F90190FFF71BFF0097002802D0F1
:10116000FFF70CFF009607271C4E1D4A33681D49E8
:10117000BB4333601C4BE3181B78DBB213601B4A84
:101180001368BB4313601A4B0A68E31818787F236F
:101190009A43034013430B60322000F055F9182C9A
:1011A0000ED033681C3CA408BB433C401C43346055
:1011B000322000F049F93368AD08BB431D43356068
:1011C000009B012B01D1FFF759FF019800F049F96D
:1011D00000E001BEF7BDC04611111101080F034028
:1011E0000C0F0340180F03404DF3FF0F100F034087
:1011F00034F3FF0F10B5034B1B7B584300F024F969
:1012000010BDC046C8000020144B1A78144BD1B250
:1012100001601B781B020B431A000360114B1B7803
:101220001B041343104A0360127812061343036031
:101230000E4B1A780E4BD1B241601B781B020B4348
:101240001A0043600B4B1B781B0413430A4A43608C
:1012500012781206134343607047C04678F2FF0FBE
:1012600079F2FF0F7AF2FF0F7BF2FF0F7CF2FF0F94
:101270007DF2FF0F7EF2FF0F7FF2FF0F014B186828
:10128000C00F704700002240014A024B1A607047AD
:101290006588EDAC3800034070B5154D04002B682F
:1012A000144E9B0F9B07984215D0032233687C2075
:1012B000934333602B689B0F00D09030FFF79AFF69
:1012C00000F0CBF82B68A40F9B009B08A4071C43DD
:1012D0002C6000F0C6F803223368934319002B6892
:1012E0009A0F5342534101330B43336070BDC046E4
:1012F0000C0222401402224010B5040000F0ADF8A8
:101300000549064A0B681440054A134023430B6005
:101310000B6800F0A6F810BD10022240040404007F
:10132000FBFBFBFF042270B5224C2368134213D051
:1013300021490B6813420CD0204B5D6908681540A9
:10134000A84308605969914359619B68002B00D0FC
:1013500098470420FFF7D0FF80232268DB001A4261
:1013600015D015490A681A420DD0144A5569086803
:101370002B40984308605169114B0B405361D3686F
:10138000002B00D098478020C000FFF7B5FF8023D6
:101390002268DB021A420CD0074A12681A4204D0B3
:1013A000064B1B69002B00D098478020C002FFF736
:1013B000A3FF70BD10022240DC0000208C01002041
:1013C000FFFBFFFF034A044B116840020B40184328
:1013D0001060704708030440FFF1FFFF0823044931
:1013E000C0000A689A43D2B2034013430B607047AF
:1013F00000030440024B18680007C00F7047C04646
:1014000004030440034A044B116880010B40184355
:1014100010607047080004403FFEFFFF04230449AA
:1014200080000A689A43D2B2034013430B607047AE
:1014300000000440024B18684007C00F7047C046C8
:1014400004000440000000000230800803D0013096
:101450000238FCD1C046C0467047EFF3108072B628
:10146000704780F310887047084B094A1968136861
:101470000020994208D013680133412B00D10300AA
:101480000449C85C1360C0B27047C046C801002060
:10149000C4010020CD010020044B1868044B1A68D9
:1014A0001B68904200D24130C01A7047C80100202A
:1014B000C40100201F2204490B681340082BFBD0F5
:1014C000024B18607047C046080225404002254084
:1014D00070B504004518AC4204D02078FFF7EAFF4D
:1014E0000134F8E770BD0000134B70B51B68002B8A
:1014F00000D09847114B1B685B071CD520241F2088
:101500000F490B680133412B00D100230D4A1568A8
:101510000D4AAB4203D113680C4B1C7004E01268F7
:101520000B4DD2B2EA540B600A4B1B680342E8D160
:101530000422094B1A6070BD68010020CC0F2540C1
:10154000C8010020C401002040032540CC01002038
:10155000CD01002008032540C00F254010B5FFF73E
:1015600047F810BD10B5FFF751F810BDF8B50400ED
:101570000F0016000120002C28D0002926D00A25B3
:101580005D43FFF789FF002810D0FFF785FF0500B6
:10159000AE20FFF72FFEFFF77FFF8542F5D1390020
:1015A000AF4200D929003180651807E00120013DD4
:1015B000FFF74EFD002DE4D1102007E0AC4204D02F
:1015C000FFF752FF20700134F8E70020F8BD70B536
:1015D00001230C001500002805D0002903D0FFF7D7
:1015E00077FF00232C80180070BD000002B4714604
:1015F00049084900095C49008E4402BC7047C04656
:1016000003B47146490840004900095E49008E4410
:1016100003BC7047002243088B4274D303098B42FA
:101620005FD3030A8B4244D3030B8B4228D3030CB2
:101630008B420DD3FF22090212BA030C8B4202D354
:101640001212090265D0030B8B4219D300E0090A7C
:10165000C30B8B4201D3CB03C01A5241830B8B4285
:1016600001D38B03C01A5241430B8B4201D34B036E
:10167000C01A5241030B8B4201D30B03C01A5241D3
:10168000C30A8B4201D3CB02C01A5241830A8B4258
:1016900001D38B02C01A5241430A8B4201D34B0241
:1016A000C01A5241030A8B4201D30B02C01A5241A5
:1016B000CDD2C3098B4201D3CB01C01A5241830959
:1016C0008B4201D38B01C01A524143098B4201D393
:1016D0004B01C01A524103098B4201D30B01C01ABE
:1016E0005241C3088B4201D3CB00C01A5241830838
:1016F0008B4201D38B00C01A524143088B4201D365
:101700004B00C01A5241411A00D2014652411046C4
:101710007047FFE701B5002000F006F802BDC046A3
:101720000029F7D076E770477047C046014B18682C
:101730007047C046400100200E4B70B500251E00CA
:101740000D4CE41AA410A54204D0AB00F3589847FE
:101750000135F8E700F0D0FC084B00251E00084CCE
:10176000E41AA410A54204D0AB00F3589847013501
:10177000F8E770BD042100000421000004210000EE
:101780000C210000002310B59A4203D0CC5CC45455
:101790000133F9E710BD03008218934202D019709B
:1017A0000133FAE77047000030B59BB00091049117
:1017B00008496D4602910591012182244942E9813F
:1017C000A4006946AC8100F075F80023009A1370FC
:1017D0001BB030BDFFFFFF7F10B513000A000100F2
:1017E00002480068FFF7E0FF10BDC046400100203E
:1017F000F0B58E6885B007000C00039201939E42FD
:1018000043D890238A89DB001A423ED00325096918
:10181000236801985B1A029363695D43EB0F5D19BE
:10182000029B6D1001331B18AB4200D91D005305FC
:1018300010D52900380000F037FB061E14D0029A9C
:101840002169FFF79FFFA289194B134080221343A0
:10185000A38112E02A00380000F086FB061E0CD19E
:101860002169380000F0D4FA0C23402201203B60AB
:10187000A38940421343A38117E0029B2661F61817
:1018800026606561019EED1AA560019BB34200D2FE
:101890001E0032000399206800F0A5FA0020A3681A
:1018A0009B1BA36023689E19266005B0F0BDC0464F
:1018B0007FFBFFFFF0B59FB0029005938B890F006F
:1018C00016001B0610D50B69002B0DD1402100F02E
:1018D000EBFA38603861002804D10C23029A0138F1
:1018E0001360D8E040237B61002306AD6B61203399
:1018F0006B761033AB7634002378002B03D1A31B17
:10190000049312D003E0252BF9D00134F4E7A31B94
:10191000320039000298FFF76BFF431C00D1B4E09E
:101920006A69049B944663446B612378002B00D161
:10193000ABE00122002352426A6002A954325218DD
:1019400001342B60EB60AB601370AB65534E2178B4
:101950000522300000F03CFA002807D00123801B4C
:1019600083402A68013413432B60EFE72B68DA06C3
:1019700004D55322202102A8121811701A0704D589
:1019800053222B2102A81218117022782A2A03D080
:10199000099B00200A210EE0059A111D126805918D
:1019A000002A01DB099204E05242EA60022213435A
:1019B0002B6001340BE02278303A092A04D84B43DB
:1019C00001349B180120F6E7002800D00993237802
:1019D0002E2B1ED163782A2B0AD1059B02341A1DA7
:1019E0001B680592002B01DA01235B42079310E08C
:1019F00000230A201A0001346B602178303909294C
:101A000004D84243013452180123F6E7002B00D0DA
:101A10000792234E21780322300000F0D9F90028E4
:101A200006D04023801B83402A68013413432B6077
:101A3000217806221B48661C297600F0C9F9002887
:101A400012D0194B002B06D10722059B0733934375
:101A50000833059314E005AB00933A00134B2900BB
:101A6000029800E000BF07E005AB00933A000F4B7F
:101A70002900029800F08AF80390039B013304D0F8
:101A80006B69039A9B186B6135E7BB890B985B0602
:101A900001D5012040421FB0F0BDC046C320000068
:101AA000C9200000CD20000000000000F117000058
:101AB000F7B5170001938A680B6900900C009342F8
:101AC00000DA130022003B6043321278002A01D072
:101AD00001333B6023689B0602D53B6802333B60C1
:101AE000062523681D401ED0230043331B785A1E51
:101AF0009341226892061CD53020E11843310870CA
:101B000021005A1C45310978A21843320233117062
:101B10000FE022000123193201990098089EB04776
:101B2000431C0ED00135E3683A689B1A9D42F0DBF6
:101B3000DAE72200019943320098089DA847431C28
:101B400002D10120404220E006232068E1683A6883
:101B500003400025042B03D18D1AEB43DB171D40F6
:101B6000A3682269934201DD9B1AED180027BD424C
:101B70000AD0220001231A3201990098089EB0472A
:101B8000431CDED00137F2E70020FEBDF0B58BB07C
:101B900006920A0043320793059004920A7E0C00D5
:101BA000109B6E2A00D1ABE011D8632A22D009D84D
:101BB000002A00D1B5E0582A00D0C5E045310A70AE
:101BC000814A4FE0642A1DD0692A1BD0BCE0732AE9
:101BD00000D1AAE009D86F2A29D0702A00D0B3E03A
:101BE000202209680A43226037E0752A1FD0782A2C
:101BF00033D0A9E00E001A684236111D196013682F
:101C00003370A4E021681A68080606D4490604D592
:101C1000111D19600023D55E02E0111D19601568C1
:101C2000002D3BDA2D23049A6D42137036E02168B3
:101C30001A68080606D4490604D51568111D1960EE
:101C4000ADB202E0111D196015685F4B227E03934F
:101C500008276F2A1DD00A271BE022007821453271
:101C600011705A4A19680392081D226818600D689D
:101C7000100602D4500600D5ADB2D30702D52023FA
:101C80001A4322601027002D03D1202322689A4393
:101C900022602300002243331A7002E00A274A4BD5
:101CA00003936368A360002B09DB0422216891433E
:101CB0002160002D05D1049E002B11D07BE0002D6A
:101CC00079D0049E28003900FFF72AFD039B013ECE
:101CD0005B5C280033703900FFF79CFC051EF1D1D6
:101CE000082F09D12368DB0706D563682269934270
:101CF00002DC3023013E3370049B9B1B23612BE0ED
:101D000009681A68080607D4490605D5111D196027
:101D10001368A28A1A8004E0111D196013686269B1
:101D20001A600023049E236116E01A68111D1960D1
:101D3000166800216268300000F04AF8002801D0DF
:101D4000801B6060636803E0260042363270012326
:101D500023610023049A1370079B09AA00932100B2
:101D6000069B0598FFF7A4FE431C02D101204042C8
:101D700027E02369320006990598079DA847431C70
:101D8000F4D0236800259B070FD4099BE068984294
:101D900017DA180015E02200012319320699059878
:101DA000079EB047431CE1D00135E368099A9B1AAE
:101DB0009D42F0DBE9E72600039B42361B78337037
:101DC0008EE70BB0F0BDC046D4200000E520000037
:101DD000C9B28218904204D003788B4202D00130FD
:101DE000F8E70020704710B5884202D98B18984256
:101DF00001D3002305E09B1A013A08D3995C815472
:101E0000FAE7934203D0CC5CC4540133F9E710BD28
:101E100070B50500002944D00C1F2368002B00DAA0
:101E2000E418280000F0D8F81E4A13681100002BAF
:101E300002D16360146031E0A3420DD92268A0187A
:101E4000834203D118685B688218226063600C606B
:101E500024E0A24203D813005A68002AF9D11E6870
:101E60009819A0420BD12168711858181960824244
:101E700014D110685268411819605A600EE0A042EF
:101E800002D90C232B6009E021686018824203D13B
:101E9000106852684118216062605C60280000F0A0
:101EA0009CF870BDA8010020032370B5CD1C9D4394
:101EB000083506000C2D01D20C2501E0002D01DBB8
:101EC000A94202D90C23336048E0300000F084F8C6
:101ED000234B1C681A002100002913D00B685B1BE0
:101EE0000DD40B2B02D90B60CC181EE08C4202D112
:101EF000636813601AE04B6863600C0016E00C0026
:101F00004968E9E7174C2368002B03D1300000F043
:101F100051F820602900300000F04CF8431C18D024
:101F20000323C41C9C43A0420DD12560300000F067
:101F300054F8200007220B30231D9043C31A0ED003
:101F40005A42E2500BE0211A300000F033F8431CF3
:101F5000EBD10C233000336000F03FF8002070BD5F
:101F6000A8010020A4010020F8B506000C0015000F
:101F7000002904D11100FFF797FF040018E0002AA0
:101F800003D1FFF745FF2C0012E000F027F885424F
:101F90000ED929003000FFF787FF071E07D0210068
:101FA0002A00FFF7EFFB21003000FFF731FF3C0074
:101FB0002000F8BD002370B5064C05000800236022
:101FC000FEF7A4FA431C03D12368002B00D02B603A
:101FD00070BDC04610020020704770470B1F1A6882
:101FE000101F002A04DA891804390B68D018043845
:101FF00070470000002200002A00000000000000DE
:10200000F7FF7018B2C0300154144A1378184B10FF
:102010003C57F905F00038200020D80E2B053B6115
:102020000023E023FDC2F7FF7018B2C03001541541
:102030004A1D78184B1AF917F0000020D80C2D090A
:10204000626F6F746C6F6164657220737461727417
:102050000D0A0054686520626F6172642069732004
:102060006E6F74206163746976617465642C20708E
:102070006C6561736520616374697661746520695C
:102080007420776974682074686520616374697668
:10209000652E63796163640D0A000000B5116A253D
:1020A000003C0101D91F5DC38D2AEEDBC9B9AA9B93
:1020B0008E82766B60564D443B332C241D17100ADC
:1020C000044300232D302B2000686C4C00656667AC
:1020D000454647003031323334353637383941429E
:1020E0004344454600303132333435363738396170
:1020F0006263646566000000F8B5C046F8BC08BCC1
:102100009E4670472901000089050000F8B5C046C9
:10211000F8BC08BC9E467047010100003021000059
:10212000B800002090000000D00000000000000077
:102130000000000018020020F41F0000F81F00003B
:10214000010000000000E02EC05D0000180000004B
:1021500000366E01040404000000000000000000CE
:10216000000000000000000000000000000000006F
:102170000000000000000000C1200000000000007E
:10218000000000000000000000000000000000004F
:10219000000000000000000000000000000000003F
:1021A000000000000000000000000000000000002F
:1021B0000000000000000000E0000020000000001F
:1021C000000000000000000000000000000000000F
:1021D00000000000000000000000000000000000FF
:1021E00000000000000000000000000000000000EF
:1021F00000000000000000000000000000000000DF
:102200000040002011220000A7DE0000A7DE000031
:1022100010B5034B83F308880CF046F80BF068FE0A
:102220000040002070B572B699223B4BC7211A605E
:102230003A4A3B4B49001A6031223A4B00251A605A
:10224000394B2F3A1A600523384A20241360384A44
:102250001160384A13601222374B1A600CF012F8E2
:1022600030200CF01DFBBC22344B92011A60344B21
:10227000344A35491A60C02292000A6033490D2061
:10228000196033490A60E821324A49011A60324A2A
:102290001160F821314A49011A60314A1160314A0E
:1022A00031491A60314A1560314A1A604522314B72
:1022B0001C60314B1A60314B033A1A60304B013AC3
:1022C0001A60304B02321A602F4B01321A602F4BCA
:1022D000043A1A600CF018FA0D200CF041FA802034
:1022E0002B4BC0051D600BF0E7FF0322294B01209B
:1022F0001A608022284B12061A600822274B1A60A7
:10230000274B1C600EF0F6FE62B60CF077FB2549F9
:1023100004200CF0A3FB70BD00030240FF0F00007F
:102320000004024008030440180304400004044071
:102330000804044018040440300010401403014015
:102340000000014045FF00800803014042FF00807B
:102350000403014041FF00800C03014043FF008063
:102360001003014044FF0080B5E500000003014078
:1023700040FF008028000340480101403001014037
:102380002C0101400801014004010140000101400D
:102390000C0222403000304000003A4000033A4036
:1023A000000E3F40E510010010B5064C2378002BCD
:1023B00007D1054B002B02D0044800E000BF0123E9
:1023C000237010BD58030020000000000497010096
:1023D000084B10B5002B03D00749084800E000BFA8
:1023E00007480368002B00D110BD064B002BFBD023
:1023F0009847F9E7000000005C0300200497010003
:10240000B80000200000000070470000F0B508226E
:1024100087B07D497D4816F05FFB7D4C0822210086
:102420007C4816F059FB2100102208317A4816F03A
:1024300053FB00265823794C012726706670A6703E
:10244000E67026716671A671E6712672637205F0F8
:1024500061FCE121724D734B7F423A004902280032
:10246000029301963B0000970CF0ACFC11F012F8BF
:102470006D4B6E481E7001F04DFF06211A2010F0C2
:10248000DBFB31001A2010F00DFCFA20400010F0A8
:10249000DAFC33003A00390065480CF08BFD6549E1
:1024A00028000CF00BFF624F059601363800310012
:1024B0000CF06DFE38000CF079FE002874D15E49F6
:1024C00028000CF0E0FE0F2E03D85C4928000CF029
:1024D000DAFE3100102228000CF030FF58492800A5
:1024E0000CF0ECFE5A2E2AD004D8232E0FD0402E0A
:1024F00014D055E0762E29D0772E3DD0682E4FD1BE
:10250000504928000CF0DAFE0123237248E04E49BE
:1025100028000CF0D3FE0123637141E04B4804F026
:1025200063F84B4912F0E2FA00285FD0474804F004
:102530005BF8484912F0C6FA00285ED156E04649D9
:1025400028000CF0BBFE0123A37029E020000C3012
:1025500002F038FF002808D1404928000CF0AEFEF8
:102560002300012234331A701AE03D4928000CF090
:10257000A5FE0123637013E020000321363002F032
:10258000BBF8002806D1374928000CF097FE01233C
:10259000237005E0344928000CF090FE0123E3701D
:1025A000059B0133059310E004280ED12F49280024
:1025B0000CF069FE0F2E03D8204928000CF063FEB2
:1025C0001022310028000CF0BDFE0136F6B27F2E3D
:1025D00000D06BE7059B002B03D1254928000CF0A8
:1025E0006DFE38000CF0EEFC07B0F0BD214928006C
:1025F0000CF064FE01232371D2E71F4928000CF080
:102600005DFE0123A371CBE7589C0100D10000209F
:10261000589C0100F1040020D90000207403002020
:10262000B0100020204E0000F00400206C050020B7
:10263000C4100020709C01007C9C010014A40100C7
:102640009B9C0100B99C01009F9C01009205002009
:102650000000C8C20000C842AC9C0100C79C010039
:10266000D49C0100E19C0100EE9C0100FB9C010058
:10267000179D01002C9D01003A9D01002A4B70B569
:102680005D6D2A49281C1C6D12F03AFA002805D00D
:102690002749281C12F020FA002820D12349281CA1
:1026A00012F010FA002807D0281C15F03FF8214A34
:1026B000214B14F09DF90AE0281C15F037F81F4A49
:1026C0001F4B14F095F91F4A1F4B13F041FA0022DB
:1026D0001E4B14F08DF915F07DF8051C00E01C4D23
:1026E0001C49201C12F002FA002807D11A49201CAC
:1026F00012F0E8F9002802D0174C00E0154C201C1D
:1027000015F014F8154A164B14F072F9154A164BC9
:1027100014F0E8FB00220D4B14F06AF915F05AF89A
:10272000291C12F093FB70BD7403002000001842B6
:10273000000028429A9999999999793F111111119C
:10274000111171BF8CBAD6DEA7AADA3F000059403A
:102750000000C8410050434700409C451E82BD9C7C
:10276000EC79F13E565555555555B53FF8B51F4DC9
:102770002800583002F05AFA28001D4F1D493A002F
:102780005C300DF0CFFD28001B496C3003F092FC4B
:102790001A4C2321200026002430303601F054FE4C
:1027A000300002F0F9FF3A00154930000DF0BAFD93
:1027B0002800363001F02CFF230000226C331A80F1
:1027C0005A809A80626768321A730023221D8C3403
:1027D00023600C4C482120001C30D36702F00EFD12
:1027E00020003121243003F0FDFFF8BD74030020E8
:1027F000BC00002009240000C4100020F4030020C5
:102800009F57000074040020F0B5062199B01A20EB
:1028100010F012FA00211A2010F044FAFA200024D5
:10282000400010F010FBF94BF94F1C703B78A342AD
:1028300000D111E101237B72F64BF74930331800C8
:102840001D0003F00FFCFA20800010F0FCFA2100BC
:102850000522280002F0F2FF05220121280002F0E3
:10286000EDFF05220221280002F0E8FF02212800E6
:1028700003F01DF8A02196224900280003F038F843
:10288000E64E012334000193E54B40342100E54A34
:1028900028000093E44B03F0EDFAFA20400010F01A
:1028A000D2FA01230193DE4BDE4A21002800009377
:1028B000DD4B03F0DFFA306C14F0BEFE0022DB4B80
:1028C00013F072FC14F086FFB064F06B14F0B4FEE9
:1028D0000022D74B13F068FC14F07CFF7865B06BD6
:1028E00014F0AAFE0022D14B13F05EFC14F072FF2C
:1028F000F064706C14F0A0FE0022CC4B13F054FC7A
:1029000014F068FF3865FFF7B9FE3065C9480CF070
:1029100059FBBE4BC84D1C780123B06C2B5514F0ED
:1029200005FF0022C14B13F013F90022C34B14F032
:102930005FF814F04BFE631C0212DBB2EA54A31CD6
:10294000DBB2E854786D14F0F1FE0022BB4B14F0BA
:102950004FF814F03BFEE31C0212DBB2EA54231DD5
:10296000DBB2E854F06C14F0E1FE0022B34B14F03B
:102970003FF814F02BFE631D0212DBB2EA54A31DD4
:10298000DBB2E854386D13F03BF8E31D0212DBB202
:10299000EA5423000833DBB2E854306D13F030F80A
:1029A000230009330212DBB2EA5423000A34E4B2F2
:1029B0002855A34C954A0B33A249200013700CF004
:1029C00062FCB06C14F0B2FE022502000B00009510
:1029D00020000CF0A1FD9C4920000CF054FC786D07
:1029E00014F0A4FE009502000B0020000CF094FDF2
:1029F000964920000CF047FC706D14F097FE00958E
:102A000002000B0020000CF087FD914920000CF023
:102A10003AFCF06C14F08AFE009502000B002000D6
:102A20000CF07AFD8B4920000CF02DFC386D14F071
:102A30007DFE009502000B0020000CF06DFD864924
:102A400020000CF020FC306D14F070FE00950200A8
:102A50000B0020000CF069FD6D4D6B78002B00D150
:102A6000A4E0280002230C306B7202F0ABFC0028BB
:102A700003D17A4972480CF021FCFA202C00800026
:102A80000C3410F0E0F9200002F056FD634EB06403
:102A9000200002F0C3FD14F011FE0022634B13F07E
:102AA00083FB14F097FEF064200002F069FD13F040
:102AB00011F868655F480CF085FA544B5E4F1C783E
:102AC0000223B06C3B5514F031FE0022574B13F03B
:102AD0003FF80022594B13F08BFF14F077FD631C75
:102AE0000212DBB2FA54A31CDBB2F854686D14F086
:102AF0001DFE0022514B13F07BFF14F067FDE31C19
:102B00000212DBB2FA54231DDBB2F854F06C14F05D
:102B10000DFE0022494B13F06BFF14F057FD631DAF
:102B20000212DBB2FA54E31D0634E4B23855444CC9
:102B3000364A4B49200013700CF0A5FBB06C14F022
:102B4000F5FD0B0002210200009120000CF0E4FCD6
:102B50003D4920000CF097FB686D14F0E7FD0B0079
:102B600002210200009120000CF0D6FC3749200021
:102B70000CF089FB706D14F0D9FD0B0002210200EE
:102B8000009120000CF0C8FC314920000CF07BFBC8
:102B9000F06C14F0CBFD0B0002210200009120002C
:102BA0000CF0BAFC2F4920000CF088FB184C23795C
:102BB000002B00D1DDE00423260063720023583689
:102BC000164D40213000AB6502F06AF8FA20400053
:102BD00010F039F9300002F09DF814F0FBFDA86404
:102BE000300002F0B1F814F0F5FD124E60653000CF
:102BF0000CF0E8F9AF6C1C49381C11F077FF002885
:102C000059D01A4BAA6D1B6832E0C046E90000207B
:102C100074030020F4030020A08601007404002047
:102C2000B8040020B0040020AC040020000059408B
:102C300000408F40C4100020F90400200000244010
:102C4000B0100020469D0100539D01005C9D0100D5
:102C5000679D0100789D0100859D0100929D010006
:102C6000A09D0100AD9D01000000F042C0000020C9
:102C70009A4226DA270058374021380002F010F82F
:102C8000FA20400010F0DFF8380002F043F814F0AA
:102C9000A1FDA864380002F057F814F09BFD6065B0
:102CA00030000CF08FF9FA20AB6D40000133AB65BA
:102CB00010F0C9F89EE7CE49381C11F017FF002824
:102CC00006D00023CB49CC48AB6463650CF0F6FA20
:102CD0002000583001F0ACFFC84BC94E1D780423CA
:102CE000C84F7355B86C14F021FD0022C64B12F08A
:102CF0002FFF0022C54B13F07BFE14F067FC6B1C0A
:102D00000212DBB2F254AB1CDBB2F054606D14F073
:102D10000DFD0022BD4B13F06BFE14F057FCEB1CB5
:102D20000212DBB2F2546B1D0435EDB27055B24D98
:102D3000B24AB749280013700CF0A5FAB86C14F029
:102D4000F5FC022602000B00009628000CF0E4FBC4
:102D5000B04928000CF097FA606D14F0E7FC00967B
:102D600002000B0028000CF0D7FBAB4928000CF048
:102D7000A5FAAA4B9A781F00002A00D1E5E00323A8
:102D80003E007B7200239F4C5C365A213000A365C5
:102D9000250001F014FFFA205C35800010F053F894
:102DA000022229009E480AF099FE2B786A781B02BD
:102DB000134322005E321380002B0FD02500994967
:102DC00060358D482B800CF05EFA29880A228A48EB
:102DD0000CF0E6FA2988300001F01EFF924810F04E
:102DE00032F83D005C35280001F023FE0028F8D0C1
:102DF000280001F061FE280001F0C8FD14F0EAFC93
:102E0000A064688912F066FE3865288912F062FEB7
:102E10002065280001F073FE2600210060365C3139
:102E200003123080487002227D480B700AF0C6FD04
:102E3000714D7E4928000CF026FA31880A222800BC
:102E40000CF0AEFA7A4E30000CF0BCF803963E6DF2
:102E50007849301C11F04AFE002826D0764BA26D2E
:102E60001B689A4227DA38005A215C3001F0A7FE2D
:102E7000FA2080000FF0E7FF3E005C36300001F0E2
:102E8000D8FD0028F8D0300001F016FE708912F04D
:102E900021FE3865308912F01DFE206503980CF084
:102EA00091F8A36D0133A365D1E76249301C11F09D
:102EB0001DFE002806D00023604928003B652365DD
:102EC0000CF0FCF94D4B4E4E1C780323386D3355F6
:102ED00012F096FD631C0212DBB2F254494DA31CA2
:102EE000DBB2F054286D12F08BFDE31C0212DBB252
:102EF000F254631D0434E4B230553F4C3F4A50490C
:102F0000200013700CF0BFF9386D14F00FFC02268E
:102F100002000B00009620000CF0FEFA4949200048
:102F20000CF0B1F9286D14F001FC009602000B00C2
:102F300020000CF0F1FA6035434920000CF0A3F9B1
:102F400029880A2220000CF02BFAFB78002B00D1F4
:102F5000D8E005233D007B7200232A4C363503213F
:102F60002800A36501F0C8FBFA2040000FF06BFFBA
:102F7000280001F021FCA064280001F055FC12F0AB
:102F800061FD324912F0D8F8294DE06428000CF0B8
:102F900019F8A66C1649301C11F0A8FD002857D06E
:102FA000254BA26D1B689A4258DA3E003636032143
:102FB000300001F0A1FBFA2040000FF044FF300088
:102FC00001F0FAFBA064300001F02EFC12F03AFD93
:102FD0001E4912F0B1F8E06428000BF0F3FFFA206C
:102FE000A36D40000133A3650FF02DFFD1E7C0466C
:102FF0000000F042B29D0100B0100020E900002066
:10300000F90400207404002000005940000024400E
:10301000BC9D0100539D0100CA9D01007403002066
:1030200000F4FF0FCE9D010088130000DE9D01001B
:10303000C410002000DC7F47C0000020EF9D01008D
:10304000F99D0100089E0100169E01000000C84283
:103050008449301C11F04AFD002806D00023824923
:103060008248A3647B650CF029F9814B814D1C7863
:103070000523814E2B55B06C14F058FB00227F4B7A
:1030800012F066FD00227E4B13F0B2FC14F09EFAA3
:10309000631C0212DBB2EA54A31CDBB2E854F06CEE
:1030A00014F044FB0022764B13F0A2FC14F08EFACD
:1030B000E31C0212DBB2EA54631D0434E4B2285567
:1030C0006A4C6B4A6F49200013700CF0DCF8B06C4E
:1030D00014F02CFB022502000B00009520000CF0E0
:1030E0001BFA694920000CF0CEF8F06C14F01EFBBE
:1030F000009502000B0020000CF00EFA634920003E
:103100000CF0DCF87B79002B4BD006230026604CBA
:10311000594D2434212120007B72AE6501F0F4F971
:1031200064200FF090FE3100200001F0FFF9686587
:1031300064200FF088FE3100200001F0F7F9686587
:10314000200001F08BF953480BF03CFF484B494EEF
:103150001C780623686D335514F0E8FA0022484BBA
:1031600013F046FC14F032FA631C0212DBB2F25484
:10317000E31C0234E4B230553C4C3D4A4649200041
:1031800013700CF080F8686D14F0D0FA0B00022177
:103190000200009120000CF0BFF9404920000CF023
:1031A0008DF83B0034331B78002B00D1D7E0072388
:1031B0003D007B7200236C352F4C5822762128006D
:1031C000A36503F08DF8FA2040000FF03CFE0423C5
:1031D00002220321280001930093013302F08BFFA8
:1031E000280003F0C1F8A064280003F0E1F82C499E
:1031F00011F0A2FF274DE06428000BF0E3FEE66C1F
:103200002849301C11F072FC00284FD0264BA26DCB
:103210001B689A4250DA3E006C3658227621300004
:1032200003F05EF8FA2040000FF00DFE04230222A6
:103230000193009303210133300002F05CFF300062
:1032400003F0B6F8164911F077FFE06428000BF0A0
:10325000B9FEFA20A36D40000133A3650FF0F3FD22
:10326000CDE7C0460000F042279E0100B0100020CC
:10327000E9000020F90400207404002000005940F7
:1032800000002440319E01003E9E0100469E010048
:10329000F4030020C41000204A9E01005B9E010040
:1032A0000000C84200C09444C0000020B949301C4E
:1032B00011F01CFC002805D00023B749B748E3648F
:1032C0000BF0FCFFB64BB74D1C780723B64E2B55C1
:1032D000B06C14F02BFA0022B44B12F039FC00222F
:1032E000B34B13F085FB14F071F9631C0212DBB2CF
:1032F000EA54A31CDBB2E854F06C14F017FA002275
:10330000AB4B13F075FB14F061F9E31C0212DBB256
:10331000EA54631D0434E4B22855A04CA04AA549E0
:10332000200013700BF0AFFFB06C14F0FFF9022512
:1033300002000B00009520000CF0EEF89E492000E2
:103340000BF0A1FFF06C14F0F1F9009502000B00F6
:1033500020000CF0E1F8994920000BF0AFFFBB7999
:10336000002B64D00122964C524211000023200011
:103370000BF020FEFA2040000FF065FD914D280073
:1033800003F032F9884EB064280003F00DF9786537
:1033900020000BF017FE824B824D1C780723B06C87
:1033A0002B5514F0C3F90022804B12F0D1FB002200
:1033B0007F4B13F01DFB14F009F9631C0212DBB202
:1033C000EA54A31CDBB2E854786D14F0AFF9002284
:1033D000774B13F00DFB14F0F9F8E31C0212DBB28B
:1033E000EA54631D0434E4B228556C4C6C4A7649A7
:1033F000200013700BF047FFB06C14F097F9022512
:1034000002000B00009520000CF086F86F492000A8
:103410000BF039FF786D14F089F9009502000B006C
:1034200020000CF079F86A4920000BF047FF694B47
:10343000DB79002B6ED05C4F1C37380001F0E6FEC4
:103440000021380001F02CFF01210600380001F0B6
:1034500027FF02210500380001F022FF03210400AC
:10346000380001F01DFF08214D4B4E4A9C461B7849
:10347000D15431B20391039F591CC9B23F12575422
:10348000991CC9B256542FB2D91CC9B23E12565417
:10349000191DC9B2555426B2591DC9B23512555419
:1034A000991DC9B2545405B2D91DC9B22C12545435
:1034B00019006446093121700833384CDBB2D0540E
:1034C000454920000BF0DFFE0A22039920000BF093
:1034D00063FF424920000BF0D6FE0A22390020008B
:1034E0000BF05AFF3E4920000BF0CDFE0A223100BE
:1034F00020000BF051FF3B4920000BF0C4FE0A22D4
:10350000290020000BF048FF20000BF0C5FE2C48DE
:103510000BF058FD2F4B214C1A7A002A00D1CBE238
:10352000314D0A222E00264F6C36390030005A7277
:1035300001F05CFC1821300001F074FC182130000F
:1035400001F004FE0221300001F0E6FC0B2304AA86
:103550009B181900300001F04BFC039505970028DB
:1035600046D1224915A80CF04BF804ABD97A0A22AF
:1035700012A80CF069F812A915A80CF0A9F801001E
:1035800020000BF091FE12A80BF0DFFF15A80BF046
:10359000DCFF31E000C09444279E0100B010002001
:1035A000E9000020F90400207404002000005940C4
:1035B000000024405E9E0100699E0100AD9D010057
:1035C000C410002092050020769E0100809E01001C
:1035D0008D9E010074030020909E01009F9E0100BB
:1035E000A79E0100AF9E0100F4030020B79E0100DA
:1035F000AC4920000BF062FE039D6C35280001F001
:1036000042FD002870D1280001F05BFD071C0790E7
:10361000280001F05CFD0890061C280001F05DFD0B
:1036200004900990280001F05EFD9F490A90051C56
:1036300015A80BF0E5FF0222391C12A80CF015F8B2
:1036400012A915A80CF044F8010020000BF011FE9F
:1036500012A80BF07AFF15A80BF077FF934915A875
:103660000BF0CEFF0222311C12A80BF0FEFF12A9B4
:1036700015A80CF02DF8010020000BF0FAFD12A89F
:103680000BF063FF15A80BF060FF894915A80BF03C
:10369000B7FF0222049912A80BF0E7FF12A915A8A0
:1036A0000CF016F8010020000BF0E3FD12A80BF05F
:1036B0004CFF15A80BF049FF7E4915A80BF0A0FFA1
:1036C0000222291C12A80BF0D0FF12A915A80BF09A
:1036D000FFFF010020000BF0E7FD12A80BF035FF03
:1036E00015A80BF032FF03E0734920000BF0E6FD54
:1036F000039D6C35280001F051FD002854D12800AD
:1037000001F06AFD071C0B90280001F06BFD0C9086
:10371000061C280001F06CFD68490D90051C15A8D9
:103720000BF06EFF0222391C12A80BF09EFF12A9AB
:1037300015A80BF0CDFF010020000BF09AFD12A898
:103740000BF003FF15A80BF000FF5D4915A80BF067
:1037500057FF0222311C12A80BF087FF12A915A8EF
:103760000BF0B6FF010020000BF083FD12A80BF058
:10377000ECFE15A80BF0E9FE524915A80BF040FF2E
:103780000222291C12A80BF070FF12A915A80BF039
:103790009FFF010020000BF087FD12A80BF0D5FE63
:1037A00015A80BF0D2FE03E0474920000BF086FD80
:1037B000039D6C35280001F0C9FB002800D08DE086
:1037C000280001F0F9FB071C0F90280001F00BFC0A
:1037D0001090061C280001F03FFC03901190280077
:1037E00001F018FC39490E90051C15A80BF008FFD4
:1037F0000222391C12A80BF038FF12A915A80BF0F1
:1038000067FF010020000BF034FD12A80BF09DFEB5
:1038100015A80BF09AFE2E4915A80BF0F1FE022216
:10382000311C12A80BF021FF12A915A80BF050FFB4
:10383000010020000BF01DFD12A80BF086FE15A85C
:103840000BF083FE234915A80BF0DAFE0222039940
:1038500012A80BF00AFF12A915A80BF039FF0100FE
:1038600020000BF006FD12A80BF06FFE15A80BF060
:103870006CFE194915A80BF0C3FE0222291C12A8E0
:103880000BF0F3FE12A915A80BF022FF0100200097
:103890000BF00AFD12A80BF058FE15A80BF055FE10
:1038A00020E0C046CA9E0100DF9E0100E89E0100A4
:1038B000F39E0100FE9E01000C9F0100259F010068
:1038C0002D9F0100379F0100419F0100599F01007A
:1038D000609F0100699F0100729F0100C0492000A4
:1038E0000BF0ECFC05980BF06DFB0A21BD48BE4ABD
:1038F0000378D15407A90E785D1CEDB256554E7869
:103900009D1CEDB256558E78DD1CEDB25655C9782A
:103910001D1DEDB2515508A90E785D1DEDB256552D
:103920004E789D1DEDB256558E78DD1DEDB2565583
:103930001D00C9780835EDB251551D0009A90E7852
:103940000935EDB256551D004E780A35EDB2565583
:103950001D008E780B35EDB256551D00C9780C351B
:10396000EDB251551D000BA90E780D35EDB256552F
:103970001D004E780E35EDB256551D008E780F3570
:10398000EDB256551D00C9781035EDB251551D00E8
:103990000CA90E781135EDB256551D004E78123532
:1039A000EDB256551D008E781335EDB256551D00FB
:1039B000C9781435EDB251551D000DA90E78153595
:1039C000EDB256551D004E781635EDB256551D0018
:1039D0008E781735EDB256551D00C9781835EDB201
:1039E00051551D000FA90E781935EDB256551D0021
:1039F0004E781A35EDB256551D008E781B35EDB256
:103A000056551D00C9781C35EDB251551D0010A941
:103A10000E781D35EDB256551D004E781E35EDB2AF
:103A200056551D008E781F35EDB256551D00C978CC
:103A30002035EDB251551D0011A90E782135EDB29A
:103A400056551D004E782235EDB256551D008E7824
:103A50002335EDB256551D00C9782435EDB25155C8
:103A60001D000AA90E782535EDB256551D004E7879
:103A70002635EDB256551D008E782735EDB25655D8
:103A80001D00C9782835EDB251551D000EA90E78DC
:103A90002935EDB256551D004E782A35EDB25655F2
:103AA0001D008E782B35EDB256551D00C9782C338C
:103AB0002D35DBB20570D1544C4E330062331B7888
:103AC000002B00D1DDE0300012AD243001222900AE
:103AD00002F096FE002800D1CFE0454920000BF00F
:103AE000D2FB0027202120000BF053F9E95D1022C2
:103AF000200001370BF022FC082FF3D1072128000A
:103B000002F0F6FEEB79834204D03A4920000BF034
:103B1000D5FB4DE120000BF0BFFB2B78222B0BD007
:103B2000282B07D0102B2DD1334920000BF0ABFBF5
:103B3000012306E0314900E0314920000BF0A3FBEE
:103B40000023370024373800039302F073FD290067
:103B5000380002F029FE01224421380002F0F1FD74
:103B6000FA2080000FF06FF9380002F063FD2900A1
:103B7000380002F019FE0022BE21380002F0E1FDFB
:103B8000002504E01F4920000BF07DFB10E1300010
:103B9000243002F0F7FD15AAA8540135092DF6D1FD
:103BA0005078137800021843039B00B2002B0CD00E
:103BB000D179C30018B210292AD190790C22101A99
:103BC00003329343C31818B222E0602312791340E2
:103BD00001D107331BE0202B16D11D3B17E0C04657
:103BE0008B9F0100E9000020F904002074040020EC
:103BF000A29F0100C39F0100D59F0100ED9F01001E
:103C000005A001001CA00100402B01D13F3B9843BF
:103C100011F018FFF621890511F058FC654B664E2E
:103C20001D786423654F7355B86413F07FFD00223F
:103C3000634B11F08DFF0022624B12F0D9FE13F09E
:103C4000C5FC6B1C0212DBB2F254EB1C0235594A64
:103C5000EDB270555C49200013700BF014FBB86C8A
:103C600013F064FD0B0002210200009120000BF014
:103C700053FC564920000BF021FB5048243002F041
:103C8000A5FD01211A200FF00DF800F02BFA070016
:103C9000484D494E2B780212F2549A1C0133DBB284
:103CA000F0544B4920002A700BF0EDFA0A2239003B
:103CB00020000BF071FB474920000BF0E4FA297853
:103CC0000A2220000BF03EFB00272B78BB420ADDC6
:103CD000F15D102220000BF031FB3F4920000BF07A
:103CE000D2FA0137F1E720000BF0D6FA60E012A813
:103CF0000BF02BFCFFE715A80BF027FC06E012A841
:103D00000BF023FCFFE715A80BF01FFC0CF0D4FD13
:103D100012A80BF01AFCFFE715A80BF016FCF5E74C
:103D200012A80BF012FCFFE715A80BF00EFCEDE754
:103D300012A80BF00AFCFFE715A80BF006FCE5E75C
:103D400012A80BF002FCFFE715A80BF0FEFBDDE765
:103D500012A80BF0FAFBFFE715A80BF0F6FBD5E76E
:103D600012A80BF0F2FBFFE715A80BF0EEFBCDE776
:103D700012A80BF0EAFBFFE715A80BF0E6FBC5E77E
:103D800012A80BF0E2FBFFE715A80BF0DEFBBDE786
:103D900012A80BF0DAFBFFE715A80BF0D6FBB5E78E
:103DA00012A80BF0D2FBFFE715A80BF0CEFBADE796
:103DB00019B0F0BDE9000020F904002074040020CF
:103DC0000000594000002440649E010031A0010021
:103DD00033A0010044A00100CC9D0100F8B5214BA7
:103DE00018781D00042839D81F4C10F091FC0318D6
:103DF0001C2333000FF078FB10F0DAF91B4E1C493E
:103E0000370063373A781B480A3264360BF004FAFD
:103E100032783978200000F095F9012318E020006D
:103E200000F0EAF91CE0FEF7EFFC200000F032FAA7
:103E300003230DE0FA210020890009F093FD0E4BC9
:103E40005B68C1180D4B2000196000F04DFA042387
:103E50002B7005E0200000F053FA01E000221A70F8
:103E6000F8BDC046F00400206C050020740400205A
:103E700054A00100B0100020C000002070050020F8
:103E80000122014B1A707047D000002030B5144C4D
:103E900089B020000EF012FD01256B4668461D70AA
:103EA00007F00AFA002818D16B461A790D4B002A40
:103EB00003D002221D7022750FE003A802705A1C65
:103EC0004260220009331532C360826007F086FC2D
:103ED0000423002800D00323237509B030BDC04659
:103EE000DC040020D0000020037810B5042B01D1A1
:103EF000FFF7CCFF10BD0000F0B51B4D87B0687E0A
:103F000001A907F069F902AC002803D0002323704F
:103F1000A3600EE0154B164E1F78002F0BD11548ED
:103F200009F0A6FF337827702371134B1D33A3606C
:103F30006B7EA3810EE0114809F09AFF01232370E4
:103F4000337823710C4B1D33A3606B7EA3810C4B24
:103F50001B78E37305232000A37307F059FD431E6C
:103F60009841C0B207B0F0BDD0000020CA000020C8
:103F7000C800002071A00100DC04002073A0010033
:103F8000C900002070B506000D001A2006210EF0B1
:103F900053FE00211A200EF085FE01200EF053FF83
:103FA0000B4C6034200002F0CAFC200002F091FDAE
:103FB000084A20003240002102F052FD200002F0A9
:103FC00012FD002D02D028000EF03DFF70BDC0464E
:103FD000DC040020FFFFFF00002110B50800FFF700
:103FE000D1FF01211A200EF05DFE10BD10B503783F
:103FF000002B1FD14378114C002B11D1FA2110480E
:104000004900FFF7BFFFFFF7E7FF0E4809F030FF59
:10401000230074331B78002B0CD10233237509E085
:10402000094809F025FF200008490EF07BFC20001C
:104030000EF0C8FB0122064B1A7010BDDC040020F4
:104040005000500092A001009BA0010030750000BC
:10405000D000002070B543780400002B32D110222C
:10406000037982560E20215E174809F001FFA02037
:10407000C821C001FFF786FFFFF7AEFF6379012B70
:1040800001D1FFF703FF637B002B1BD0637C0F493B
:10409000002B00D10E49E378227B0E4809F0E8FEA0
:1040A0000D4809F0E5FE0025237BAB4207D9A36844
:1040B0000A48595D013509F0DBFEEDB2F4E7084826
:1040C00009F0D6FE70BDC046B7A00100A9A001004E
:1040D000B0A00100EAA001000BA1010016A101009F
:1040E00080B3010010B506211B200EF0A5FD0021B4
:1040F0001B200EF0D7FD13200EF07CFE04000121E2
:104100001B2064000EF0CEFDA0B210BD10B5FFF76D
:10411000E9FF13F091FA084A084B12F0E3FE02009F
:104120000B0011F015FD0022054B12F061FC13F09D
:104130004DFAC0B210BDC0469A99999999990D400F
:1041400000005940F0B5234B234C2449A367244B6E
:104150000026E367231DD967230020002149083387
:10416000D967214B21498BB08B60CE607830083104
:1041700006F0A0FE20000EF0A1FB1D4920000EF06D
:1041800019FB022301AD2B701A4B28001B78012765
:104190002B7107F06BF9072328002B702F7107F0A4
:1041A00065F9FF2307AD6E80AE80EE802E816E81B3
:1041B00004AE2B803000F23B3370059507F056F9C2
:1041C0000C2330003370756007F050F927750BB081
:1041D000F0BDC046813E0000DC040020ED3F000041
:1041E00055400000E93E00000D4100005C05002044
:1041F0008D3E0000CB00002070B5214B86B01B78AF
:1042000001AC204D204E002B14D0204920480BF04B
:1042100055F8002323706B1C636033000935153398
:104220002000A360E56007F0D9FA0423002824D019
:10423000032322E0032220002270636007F016F9B6
:1042400004232370EB692000636007F00FF9052356
:1042500023702B0020002033636007F007F906234A
:10426000303520002370656007F000F9012320003D
:104270002370237107F0FAF80223337506B070BD7E
:10428000CC000020D0000020DC0400201BA1010095
:10429000B01000207FB5124D2B78002B1ED00023CC
:1042A00001AC2000237007F007F80E4A13781600BF
:1042B000022B06D12279022A03D02000237107F0B5
:1042C000D5F83378002B06D12279002A03D02000BC
:1042D000237107F0CBF8FFF70FFE28707FBDC046B3
:1042E000D0000020D704002010B5044C20000EF0B0
:1042F00019FB20000EF066FA10BDC046DC04002059
:1043000010B509F0F1FA024B5B6E984710BDC0463C
:1043100044A50100F8B507000FF086FE002866D01E
:10432000334B40331B78002B61D0324C20000AF015
:10433000B3FF314D2B0074331B78002B27D12F494D
:1043400020000AF0BBFF01211B200EF075FC2C4E53
:104350001B200EF0BBFC00280AD10FF0D3F9062178
:104360001B200EF069FC01211B200EF09BFC3EE09F
:10437000013E0120B6B20EF066FD002EE8D1062106
:104380001B200EF059FC01211B200EF08BFC0FF0BE
:10439000ABF81C4B38001A781B4B1978FFF7D2FE8C
:1043A0000FF076FE2B0074331B781849002B00D0D9
:1043B000174920000AF082FF2B0074331878002878
:1043C00013D1144B196809F0CDFA060020000AF049
:1043D00063FF1149320020000AF01EFF20000AF09E
:1043E0005BFF31003800FFF77FFF04232B75F8BD1A
:1043F000D0000020B0100020DC04002026A1010025
:10440000B90B0000D8040020D70400204DA1010002
:1044100063A10100C400002074A1010010B5074C85
:104420005223603407220121200002F003FB044ADA
:10443000044920000BF076FF10BDC046DC040020CC
:10444000BC0000202169000045234370024B01702D
:1044500043600023037270479A99993F10B5024850
:104460000AF0B0FD10BDC046C41000200B00103B88
:10447000DBB270B504000D00132B1DD801229A4049
:104480001300184A134217D0174E017830000AF073
:104490007EFE217A30000AF049FD30000AF086FEE7
:1044A00006000A200EF0CFFC042E15D8300010F0C4
:1044B0002FF9080B0D0F11000C490D480AF008FFE9
:1044C0000AE0257201200CE00A4906E00A4904E0EE
:1044D0000A4902E00A4900E00A4905480AF0F8FEE4
:1044E000002070BD0B000B00C4100020BBA1010018
:1044F000B0100020D8A1010005A201003AA20100DD
:104500006CA2010088A2010070B50D000121040019
:1045100049420A00002304480AF04CFD290020000B
:10452000FFF7A4FF70BDC046C410002070B5037A29
:1045300004000E00002B06D1304931480AF0C8FEB5
:10454000C020000659E02F4D017828000AF01FFE18
:10455000217A28000AF0EAFC28000AF027FE237AD4
:10456000202B14D3212B07D9232B10D160780B3BA0
:10457000002E06D1000105E06078B423002E00D1A2
:1045800078235843452110F061F90EF05CFC217846
:10459000022228000AF0E5FD022801D01A482CE08A
:1045A00028000AF077FC060228000AF073FC30436A
:1045B00011F090FA1449051C10F07EFA0028EDD194
:1045C000607845280AD011F085FA011C0F4810F0D8
:1045D000B3FD011C281C10F079FF051CEF22237A83
:1045E000113B134205D1FC21281C890510F06EFFF8
:1045F000051C6168281C10F09FFD70BDCBA2010056
:10460000B0100020C4100020000080BF00008A42CB
:104610007047030010B5C48A828A0C1B54431021D2
:10462000595E0E22805EE4130919C00210F00EF9E3
:10463000001910BD70B50E001500084C7721200040
:104640000AF096FD310020000AF070FC29002000DD
:104650000AF06CFC20000AF0A9FD70BDC410002017
:1046600070B50D000E4C772120000AF081FD290065
:1046700020000AF05BFC20000AF098FD2000772162
:104680000AF076FD0122772120000AF06AFD200061
:104690000AF000FC050020000AF088FDE8B270BDB9
:1046A000C410002070B50D00124C772120000AF0D4
:1046B0005FFD290020000AF039FC20000AF076FD99
:1046C000200077210AF054FD0222772120000AF011
:1046D00048FD20000AF0DEFB85B220000AF0DAFB7C
:1046E0002D02ADB20543ADB220000AF05FFD2800F7
:1046F00070BDC046C410002010B50B1C0400032977
:1047000000D90323012252421100237022480023C2
:104710000AF050FCD0212000FFF7A2FF002355280B
:1047200037D1AA212000FFF7BDFFAC216080200017
:10473000FFF7B8FFAE21A0802000FFF7B3FFB02144
:10474000E0802000FFF7AEFFB22160822000FFF77B
:10475000A9FFB421A0822000FFF7A4FFB621E082C8
:104760002000FFF79FFFB82120812000FFF79AFF6C
:10477000BA2160812000FFF795FFBC21A0812000B5
:10478000FFF790FFBE21E0812000FFF78BFF0123A0
:104790002082180010BDC046C410002010B50400CF
:1047A0002E22F421FFF746FF05200EF04CFBF621E8
:1047B0002000FFF777FF10BD10B50400FFF7EEFFF4
:1047C00001002000FFF725FF0830001111F03AF931
:1047D000014910F0B1FC10BD0000204170B505008A
:1047E0000278F42192013432D2B2FFF723FF2B7802
:1047F0000520002B06D00820012B03D00E20022B11
:1048000000D01A200EF01FFB2800F621FFF74AFF08
:10481000F82104022800FFF723FF08232A78204309
:104820009B1AD84070BD0000F8B50600FFF7B6FF30
:1048300005003000FFF7D2FF290004003000FFF729
:10484000E8FE234B0622B15EC0180300434308274D
:10485000F25F1B1341435A434913121489188022F3
:104860000231120289108918728A357851430A2759
:10487000F25FC90B53430427F25FDB125043C012AF
:104880001B180220325E92009B18AB4003220233B9
:10489000D8171040C3180F489B10E840E31A58433C
:1048A000002803DB40000FF047FF02E00FF044FF59
:1048B0004000094903120A005B435A43074B434334
:1048C00019141314064ACB189B181B11C018F8BDF5
:1048D00060F0FFFF50C30000DE0B000043E3FFFF6A
:1048E000CF0E00000378D807C00FC0B2820098072F
:1048F000C00FDB06C0005B0F10431B01184370475D
:10490000012110B5494200230A0002480AF052FB77
:1049100010BDC046C4100020F0B5002485B0009042
:10492000029103920193019B9C422BD21B1B1A1CE8
:10493000DBB2202B00D92022134D009B28001978D0
:10494000D7B20AF024FC029B2800E118C9B20AF091
:10495000EDFA28000AF02AFC009B3A00197828009A
:104960000AF0F9FB0026A519EDB2BE4202DBE419FC
:10497000E4B2D8E7039B04485D190AF08BFA0136CC
:104980002870F0E705B0F0BDC4100020F7B501AD08
:104990002A00042306210400FFF7BEFF6B88298844
:1049A0005BBA17489BB249BA584389B20FF0C4FEAC
:1049B00012F084FE0022134B11F0F6FB02F094F883
:1049C0000022114B11F0F0FB104A114B11F0C0F80E
:1049D00002000B0000200F4911F0E6FB0E4A0F4BBE
:1049E00012F080FA060060680F0012F09FFE0200CD
:1049F0000B003000390012F075FA03B0F0BDC0466C
:104A0000A0860100006AF8400068AA4083DBB5DC9C
:104A1000E1796B3F0000F03F6666666666127140A2
:104A200013B56B46DC1D22000123FFF775FF2078CC
:104A300016BD70B500210400FFF7F2FF0125060046
:104A4000C2102A400221AA40237B2E40AB433343AD
:104A50008B4306112E40134304228E409343C20918
:104A60002A4033430631D2008B4313432373EB4078
:104A70002B40180070BD70B500210400FFF7D0FF77
:104A800001210500227B0D408A43C3100B402A43BD
:104A900002258B40AA431A43042305119A43C309F4
:104AA00008200D40AD002A430B40DB0082431A432F
:104AB00010002273084070BD13B50400FFF7B9FF62
:104AC00003000020834219D008236A4620000221F7
:104AD000FFF722FF6B466A461B7852781B0213438E
:104AE00063816B466A469B78D2781B02134323810D
:104AF0000123207B184001D06B46587916BD13B5B1
:104B000001AC022322001121FFF706FF208840BAE2
:104B100080B216BDF8B50F001E001500084C0178D4
:104B200020000AF034FB390020000AF0FFF93200BF
:104B3000290020000AF095F920000AF037FBF8BDA3
:104B4000C410002037B5042405002200054901A83F
:104B500013F0C2FF2800230001AAFF21FFF7DAFFAC
:104B600037BDC046EEA2010007B513006A46073202
:104B700013700123FFF7CEFF07BD07231C22194046
:104B80008B00417B10B591431943040041730D30F4
:104B9000FFF7A8FE012102002000FFF7E5FF10BD8E
:104BA0000222437B10B59343437304000D30FFF79B
:104BB00099FE012102002000FFF7D6FF10BD10B5BD
:104BC00004000170FFF79CFE2000FFF7BBFF64208C
:104BD0000EF039F920212000FFF722FF812801D0B3
:104BE000002018E00023F4211A002000FFF792FFB4
:104BF00064200EF028F92000FFF73DFF0028EFD1D8
:104C0000237B1B07ECD52000FFF7CAFF2000012102
:104C1000FFF7B3FF012010BD07B50B0A01AA1370FF
:104C2000517002231121FFF775FF07BD7047000087
:104C300010B502480AF0C6F910BDC046C4100020E5
:104C400070B50C4C0D1C017820000AF0A0FA02216E
:104C500020000AF06BF9E9B220000AF067F90021A0
:104C600020000AF063F920000AF0A0FA0A200EF0F2
:104C7000EAF870BDC41000200B0010B50421012A11
:104C800000D00021002B04D0012B06D10322914338
:104C900002E003239943013B1943FFF7D1FF10BD05
:104CA00010B5017001214942040000230A000448A4
:104CB0000AF080F9022220001100FFF7DDFF10BD8D
:104CC000C410002070B50E000500114C01782000C2
:104CD0000AF05DFA310020000AF028F920000AF0FD
:104CE00065FA09200EF0AFF82978022220000AF0B8
:104CF00032FA20000AF0CEF8050020000AF0CAF8C7
:104D0000FF222B0212021340C0B2184370BDC046EE
:104D1000C410002010B50021FFF7D4FF12F08CFC66
:104D20000022064B11F064FE0022054B11F060FEDC
:104D30000022044B12F0D6F810BDC0460000F03E31
:104D400000A064400000444010B50121FFF7BAFF05
:104D500012F072FC0022044B11F04AFE0022034BB9
:104D600011F046FE10BDC0460000F03E0000594064
:104D7000F8B50500140080680F001E000AF007FA5D
:104D8000A868210003689B689847A8680AF00EFA93
:104D9000041E15D132003900A8680AF0DCF9A868B1
:104DA00003681B69984700280AD0A86803685B69F4
:104DB0009847A642F3D9069A631C1055DCB2EEE779
:104DC000F8BD70B5040016001D0080680AF0DFF918
:104DD000A068310003689B689847A06829000368B1
:104DE0009B689847A0680AF0E1F970BD8160704740
:104DF0000B0007B57522017B00930123FFF7B8FF75
:104E00000EBD0000836810B50200002B06D10448D7
:104E100090600122524211000AF0CCF810BDC04649
:104E2000C410002070B50D000400FFF7EBFF082D43
:104E30000AD003D88023002D09D013E0102D05D00F
:104E40008323182D03D00DE0812300E08223DB05AE
:104E50006361217B2B001C222000FFF7B2FF0A2098
:104E60000DF0F1FF70BD10B50B000A220C21FFF709
:104E7000A8FF0A200DF0E7FF10BD30B5040085B093
:104E80000021FFF7F0FF03AD20000F21FFF7EBFF3C
:104E90000095032310220C212000FFF769FF230057
:104EA0002A782B331A706A782D345A70AB782370B5
:104EB00005B030BD30B50F2585B06D44017B0123B1
:104EC00000956B220400FFF753FF70222B7820001F
:104ED00093432B70217B053AFFF773FF0A200DF0F7
:104EE000B2FF05B030BD30B50F2585B06D44017BF4
:104EF0000123009537220400FFF73AFF02222B78A6
:104F0000200013432B70217B3532FFF75AFF0A2014
:104F10000DF099FF05B030BD70B504000D00FFF72E
:104F200071FF2000FFF7C6FF2000FFF7DCFF200025
:104F3000FFF7A3FF20000021FFF795FF29002000C5
:104F4000FFF791FF0A200DF07EFF70BD030007B54B
:104F500024330093032207230C21FFF709FF0EBD22
:104F600070B50600080010F0B5FD8621C90510F0E7
:104F7000C1FB12F0DBFB00220D4B11F039FDFE23CB
:104F800000229B0511F034FD00220A4B10F0E0FDD9
:104F9000040030000D0010F055FD12F0C7FB0200B8
:104FA0000B002000290011F023FD12F013FC70BD4E
:104FB0000000E03F0000F03F030070B504002B3319
:104FC0001978831DD87F631DDB7F0002184300B270
:104FD000FFF7C6FF051C0023E05E10F033FD291C1F
:104FE0000FF034FF70BD030070B504002C33197846
:104FF000243BD87FE31DDB7F0002184300B2FFF79C
:10500000AFFF051C0223E05E10F01CFD291C0FF011
:105010001DFF70BD70B50400FFF7CEFF061C200019
:10502000FFF7E1FF12F082FB0D000400301C12F0CC
:105030007DFB2B00220001F053FD0022044B11F0F8
:10504000D7FC0022034B11F0AFF812F0C3FB70BD88
:1050500000806640FA210940030070B52D331978AD
:10506000043B0400013B58781B780002184300B24F
:10507000FFF776FF051C0423E05E10F0E3FC291C1B
:105080000FF0E4FE70BD030007B50D33017B3B223A
:1050900000930623FFF76CFE0EBD10B50400411807
:1050A000A218487B537B0002184300B2404210F024
:1050B000C9FC616910F00AFAE021890510F006FACE
:1050C00010BD10B501220021FFF7E7FF10BD10B59C
:1050D00003220221FFF7E1FF10BD10B505220421D4
:1050E000FFF7DBFF10BDD0B5012200210400FFF760
:1050F000D4FF12F01BFB0B00020011F079FC03221D
:1051000006000F0020000221FFF7C7FF12F00EFB80
:1051100002000B0011F06CFC3B00320010F018FD97
:10512000052206000F0020000421FFF7B6FF12F051
:10513000FDFA02000B0011F05BFC32003B0010F0A6
:1051400007FD01F059FD12F045FBD0BD70B50D0013
:105150000400FFF757FE082D0AD003D8002D14D104
:105160000A4B08E0102D05D0182D0ED1084B02E097
:10517000084B00E0084B2362217B2B001B22200000
:10518000FFF71FFE0A200DF05EFE70BD00007A439F
:105190000000FA440000FA4300007A44030007B517
:1051A0001833017B432200930623FFF7E1FD0EBD78
:1051B00010B504004118A218087E137E000218439F
:1051C00000B2404210F03EFC216A10F07FF9E0216D
:1051D000890510F07BF910BD10B501220021FFF701
:1051E000E7FF10BD10B503220221FFF7E1FF10BD5C
:1051F00010B505220421FFF7DBFF10BD012343702A
:10520000033383700023017083807047012110B540
:10521000494200230A00024809F0CCFE10BDC046F6
:10522000C410002070B50E0015000A4C01002000CB
:1052300009F0ADFF3100200009F078FE290A2000B6
:1052400009F074FEE9B2200009F070FE200009F0B8
:10525000ADFF70BDC410002070B505000F4C0100FB
:10526000200009F094FF0021200009F05FFE2000DB
:1052700009F09CFF29000222200009F06CFF2000A9
:1052800009F008FE0500200009F004FEFF222B02B1
:1052900012021340C0B2184370BDC046C4100020B3
:1052A00010B50400002003291ED8A388022907D0C6
:1052B000032907D0012901D00C4A04E00C4A02E07E
:1052C0000C4A00E00C4A1A4380231B021A430121B6
:1052D0002078FFF7A7FF60780DF0B5FD2078FFF785
:1052E000BBFFA378184180B210BDC04683410000C7
:1052F00083510000836100008371000070B50E00CF
:105300001500084C7621200009F032FF3100200002
:1053100009F00CFE2900200009F008FE200009F029
:1053200045FF70BDC410002070B50D000D4C7621F6
:10533000200009F01DFF2900200009F0F7FD2000E2
:1053400009F034FF01227621200009F00AFF200035
:1053500009F099FD0028FAD0200009F09BFDC0B2A9
:1053600070BDC046C410002070B50D00114C7621F0
:10537000200009F0FDFE2900200009F0D7FD2000E3
:1053800009F014FF02227621200009F0EAFE200035
:1053900009F079FD0128FADD200009F07BFD050008
:1053A000200009F077FDFF222B0212021340C0B249
:1053B000184370BDC410002010B5FFF7D5FF40BAE8
:1053C00080B210BD012270B50400524200231100CA
:1053D000434809F0EFFDD0212000FFF7A5FF00238F
:1053E00060287BD188212000FFF7E6FF8A212080FA
:1053F0002000FFF7E1FF8C2160802000FFF7DCFF39
:105400008E21A0802000FFF7D7FF9021E0802000B0
:10541000FFF7D2FF922120812000FFF7CDFF9421DA
:1054200060812000FFF7C8FF9621A0812000FFF7D0
:10543000C3FF9821E0812000FFF7BEFF9A21208260
:105440002000FFF7B9FF9C2160822000FFF7B4FF26
:105450009E21A0822000FFF7AFFFA121E082200063
:10546000FFF762FFE12120762000FFF7A5FFE3218F
:1054700060832000FFF758FFE42120772000FFF72A
:1054800053FFE52105002000FFF74EFF0F221040DB
:105490002B0105001D43E583E6212000FFF744FFB3
:1054A000E52105002000FFF73FFF0009C0B22D01F4
:1054B0000543E72125842000FFF736FFE31CD8775A
:1054C0000522F2212000FFF719FFB722F421200066
:1054D000FFF714FF64200DF0B6FC0123180070BD27
:1054E000C410002070B50D00124C7621200009F088
:1054F0003FFE2900200009F019FD200009F056FEAA
:1055000003227621200009F02CFE2500280009F056
:10551000BAFC0228FADD280009F0BCFC04022800CD
:1055200009F0B8FC0443280009F0B4FC240220432D
:1055300070BDC046C410002010B5FA210400FFF76A
:10554000D1FF228803129B1AC01152005B43801ABC
:105550000221625E1B1350430421625EC01253435A
:105560009B13C0180523606258438030001210F06E
:1055700069FA02490FF0E0FD10BDC0460000C842C4
:1055800010B50400FFF7D8FFFD212000FFF7ECFE67
:10559000204A636A80039B181E21625E1205801AEE
:1055A0002021625E80215A43821A8020C90152184C
:1055B000217F00025943C9120918E01CC07FD21391
:1055C00040B243439B124B4380219B1289035B18DB
:1055D0001A20215E207E4B43802189015B189B139A
:1055E0005A43D3135B43DB1143431B11D31AD843F4
:1055F000C822C01703405205934200DD1300181360
:1056000012F05CF80022044B11F0F2F90FF0F2FAFC
:1056100010BDC04600D4FEFF0000503FF0B587B07B
:105620000290FFF789FFF7210298FFF75BFF012146
:10563000029B05905B6A56480093009A4942D31733
:1056400012184B4110001900009201930FF0A6FAB6
:10565000029B06000820185E0F00009A019BC117EC
:105660000FF09CFA030D0D031D43029B04030A2057
:10567000185E32003B00C1170FF090FA0B069C46F3
:10568000020A60460B12024312196B411900802373
:10569000100000221B0280185941029B0024DA8866
:1056A00000230FF07BFA4B100393CB170493049A5B
:1056B000039B1343A34267D0029B32001020185E65
:1056C0003B00C1170FF06AFA029B06000E20185E1D
:1056D0000F00009A019BC1170FF060FAC50B4B0435
:1056E0002B434204B6185F418022059B52031B11D5
:1056F000D31ADD175A08E90711432200D807029B85
:105700000C255D5FEB0092197B41801A9941214A7B
:1057100000230FF043FA039A049B0FF0FBF9CB042C
:10572000440B1C43029B06001620185E4D130F000D
:1057300022002B00C1170FF031FA22002B000FF0CE
:105740002DFACB01440E1C43029B32001420185E3C
:105750004D163B00C1170FF021FAA4197D41C20C70
:105760004E033243CB1412196B411C061912029BD3
:10577000100A12229B5E2043DE171A0F35011543D3
:105780001C0124184D41240A200007B0F0BDC0467A
:10579000000CFEFF350C00000023037070477047BB
:1057A00070B50E001500094C0100200009F0EFFC57
:1057B0003100200009F0BAFB2978200009F0B6FB7F
:1057C000200009F0F3FC024870BDC046C410002060
:1057D00028010020F8B50F0005001600114C0178D3
:1057E000200009F0D4FC3900200009F09FFB2000C4
:1057F00009F0DCFC29780122200009F0ACFC200033
:1058000009F041FB3500084F3870AB1B3A78DBB22A
:105810009A4205D9200009F03DFB28700135F4E7D4
:105820003800F8BDC41000202901002013B56B46D4
:10583000DC1D2200FFF7CEFF207816BD73B50500F2
:105840000E0014000020032930D8052A2ED8012983
:105850000CD081421AD0022928D174212800FFF7E8
:10586000E5FF6B46A400DA1D2F2317E07221280004
:10587000FFF7DCFF6B46DA1D582318400443722102
:1058800028781470FFF78CFF30000FE07421280097
:10589000FFF7CCFF6B46DA1D49236401184004432F
:1058A000147028787421FFF77BFF012076BD73B553
:1058B0000E0075210500FFF7B9FFFF2E0ED06B46D5
:1058C000DC1D2423B6001E404733184030432070AF
:1058D000220028787521FFF763FF20784923801084
:1058E000184076BD10B51D21FFF7A0FF10BD0000C8
:1058F000F0B50F0085B0712104001600FFF796FF88
:1059000002ABDD1D002300902A00207870212B704F
:105910009F4201D09E4206D1FFF742FF4823009AE2
:105920009A4313006BE0FFF73BFFC823C72F06D94C
:10593000C8223B1C5200974200D9131C9BB202AAFA
:10594000571D608A324A1421801858430EF07EFF9A
:10595000C8239B03C0180A210EF078FFC422238AB3
:1059600092009B18584364214310E06A01930EF0A3
:105970006DFF0423FA21E356890058430EF066FFB9
:10598000019BE1780002181804310EF05FFF0E2130
:1059900083236156594380235B02C9180EF056FFDA
:1059A0002223FA385843642132300EF04FFF3A0078
:1059B00038705A212078FFF7F3FE164B9E4201D82B
:1059C000002303E0FF2202AB9A7109E03F2E03D9C6
:1059D0000133B608DBB2F9E79B019E1902AB9E7159
:1059E00000232A00702120782B70FFF7D9FE02AB2C
:1059F0009A1D20786421FFF7D3FE6B461B782B702D
:105A000020782A007121FFF7CBFE012005B0F0BD00
:105A100099590200BF0F0000F0B5E94CB3B00190F6
:105A20000D004022210012A813F056F82100402258
:105A3000403122A813F050F8002D02D00198FFF752
:105A400051FFE04D019B2800197809F0A0FB1D21B2
:105A5000280009F06BFA280009F0A8FB019B0F222F
:105A60001978280009F077FB280009F00CFA0026C5
:105A7000D54F38703A78F3B20EAC9A4205D9280067
:105A800009F008FAA0550136F4E70F26A3781A03A7
:105A9000E3781B0113432279120913430793237AF6
:105AA000627A1B021A430892A27B637B91099B00D6
:105AB0001943324009910A926579A379E2791B0171
:105AC0002D031D4312091543019AEB10958A6D00B1
:105AD0005D1BEE17F307680818430200330031001E
